{
	"data": {
		"bytecode": {
			"linkReferences": {},
			"object": "608060405260008055600060015560006002556001600360006101000a81548160ff0219169083151502179055506001600360016101000a81548160ff0219169083151502179055506001600360026101000a81548160ff02191690831515021790555060006003806101000a81548160ff0219169083151502179055506000600560006101000a81548160ff021916908315150217905550600060075560006008556000600955670de0b6b3a7640000600a553480156100bf57600080fd5b50613c07806100cf6000396000f3fe6080604052600436106100c25760003560e01c80639dd63d6b1161007f578063ae47a29011610059578063ae47a290146101f4578063b86a770c1461021d578063c2897b1014610227578063c41a989214610231576100c2565b80639dd63d6b146101a8578063a7a1ed72146101bf578063ac22c2b4146101c9576100c2565b80630dd6ed9c146100c757806337b4d863146100d157806343000315146100fc5780635df3d87e146101275780636f97059b1461015257806376cdb03b1461017d575b600080fd5b6100cf61025c565b005b3480156100dd57600080fd5b506100e6611f1d565b6040516100f39190613379565b60405180910390f35b34801561010857600080fd5b50610111611f23565b60405161011e9190613379565b60405180910390f35b34801561013357600080fd5b5061013c611fbd565b6040516101499190613379565b60405180910390f35b34801561015e57600080fd5b50610167611fc3565b6040516101749190613379565b60405180910390f35b34801561018957600080fd5b50610192611fc9565b60405161019f9190613379565b60405180910390f35b3480156101b457600080fd5b506101bd611fcf565b005b6101c7612264565b005b3480156101d557600080fd5b506101de61238d565b6040516101eb9190613379565b60405180910390f35b34801561020057600080fd5b5061021b600480360381019061021691906133c5565b612427565b005b6102256124cf565b005b61022f612568565b005b34801561023d57600080fd5b50610246613095565b6040516102539190613379565b60405180910390f35b60011515600360019054906101000a900460ff161515036110835760001515600360009054906101000a900460ff161515036109d257600560019054906101000a900473ffffffffffffffffffffffffffffffffffffffff1673ffffffffffffffffffffffffffffffffffffffff163373ffffffffffffffffffffffffffffffffffffffff1603610322576040517f08c379a000000000000000000000000000000000000000000000000000000000815260040161031990613475565b60405180910390fd5b60011515600360029054906101000a900460ff16151514610378576040517f08c379a000000000000000000000000000000000000000000000000000000000815260040161036f90613507565b60405180910390fd5b61038061309b565b6000600560006101000a81548160ff021916908315150217905550600760008154809291906103ae90613556565b9190505560078190555060011515600360019054906101000a900460ff161515036107625760011515600360009054906101000a900460ff1615150361059457600a543373ffffffffffffffffffffffffffffffffffffffff1631101561044a576040517f08c379a000000000000000000000000000000000000000000000000000000000815260040161044190613610565b60405180910390fd5b600a543460075461045b9190613630565b111561049c576040517f08c379a0000000000000000000000000000000000000000000000000000000008152600401610493906136b0565b60405180910390fd5b6004546000546104ac9190613630565b600081905550346007546104c09190613630565b60078190555033600560016101000a81548173ffffffffffffffffffffffffffffffffffffffff021916908373ffffffffffffffffffffffffffffffffffffffff1602179055503373ffffffffffffffffffffffffffffffffffffffff167fdf9a51129930649214df58f542322c245372c6f2fa6fc3c9b40d927c597cd230344260405161054f9291906136d0565b60405180910390a26000600360006101000a81548160ff02191690831515021790555060076000815480929190610585906136f9565b9190505560078190555061075d565b600754346008546105a59190613630565b10156105b057600080fd5b600a543373ffffffffffffffffffffffffffffffffffffffff1631101561060c576040517f08c379a000000000000000000000000000000000000000000000000000000000815260040161060390613610565b60405180910390fd5b600a543460085461061d9190613630565b111561065e576040517f08c379a0000000000000000000000000000000000000000000000000000000008152600401610655906136b0565b60405180910390fd5b60045460015461066e9190613630565b600181905550346008546106829190613630565b6008819055506000600360016101000a81548160ff02191690831515021790555033600660006101000a81548173ffffffffffffffffffffffffffffffffffffffff021916908373ffffffffffffffffffffffffffffffffffffffff1602179055506001600360006101000a81548160ff0219169083151502179055506007546008540361072a576001600360026101000a81548160ff02191690831515021790555061075c565b6000600360026101000a81548160ff0219169083151502179055506007546008546107559190613722565b6009819055505b5b6109cd565b60011515600360009054906101000a900460ff1615150361087557600a543373ffffffffffffffffffffffffffffffffffffffff163110156107d9576040517f08c379a00000000000000000000000000000000000000000000000000000000081526004016107d090613610565b60405180910390fd5b600a54346007546107ea9190613630565b111561082b576040517f08c379a0000000000000000000000000000000000000000000000000000000008152600401610822906136b0565b60405180910390fd5b60045460005461083b9190613630565b6000819055506000600360006101000a81548160ff0219169083151502179055503460075461086a9190613630565b6007819055506109cc565b600a543373ffffffffffffffffffffffffffffffffffffffff163110156108d1576040517f08c379a00000000000000000000000000000000000000000000000000000000081526004016108c890613610565b60405180910390fd5b600a54346008546108e29190613630565b1115610923576040517f08c379a000000000000000000000000000000000000000000000000000000000815260040161091a906136b0565b60405180910390fd5b600754346008546109349190613630565b101561093f57600080fd5b60045460015461094f9190613630565b6001819055506001600360006101000a81548160ff0219169083151502179055503460085461097e9190613630565b600881905550600754600854036109af576001600360026101000a81548160ff0219169083151502179055506109cb565b6000600360026101000a81548160ff0219169083151502179055505b5b5b61107e565b60011515600360029054906101000a900460ff16151514610a28576040517f08c379a0000000000000000000000000000000000000000000000000000000008152600401610a1f90613507565b60405180910390fd5b610a3061309b565b6000600560006101000a81548160ff02191690831515021790555060076000815480929190610a5e90613556565b9190505560078190555060011515600360019054906101000a900460ff16151503610e125760011515600360009054906101000a900460ff16151503610c4457600a543373ffffffffffffffffffffffffffffffffffffffff16311015610afa576040517f08c379a0000000000000000000000000000000000000000000000000000000008152600401610af190613610565b60405180910390fd5b600a5434600754610b0b9190613630565b1115610b4c576040517f08c379a0000000000000000000000000000000000000000000000000000000008152600401610b43906136b0565b60405180910390fd5b600454600054610b5c9190613630565b60008190555034600754610b709190613630565b60078190555033600560016101000a81548173ffffffffffffffffffffffffffffffffffffffff021916908373ffffffffffffffffffffffffffffffffffffffff1602179055503373ffffffffffffffffffffffffffffffffffffffff167fdf9a51129930649214df58f542322c245372c6f2fa6fc3c9b40d927c597cd2303442604051610bff9291906136d0565b60405180910390a26000600360006101000a81548160ff02191690831515021790555060076000815480929190610c35906136f9565b91905055600781905550610e0d565b60075434600854610c559190613630565b1015610c6057600080fd5b600a543373ffffffffffffffffffffffffffffffffffffffff16311015610cbc576040517f08c379a0000000000000000000000000000000000000000000000000000000008152600401610cb390613610565b60405180910390fd5b600a5434600854610ccd9190613630565b1115610d0e576040517f08c379a0000000000000000000000000000000000000000000000000000000008152600401610d05906136b0565b60405180910390fd5b600454600154610d1e9190613630565b60018190555034600854610d329190613630565b6008819055506000600360016101000a81548160ff02191690831515021790555033600660006101000a81548173ffffffffffffffffffffffffffffffffffffffff021916908373ffffffffffffffffffffffffffffffffffffffff1602179055506001600360006101000a81548160ff02191690831515021790555060075460085403610dda576001600360026101000a81548160ff021916908315150217905550610e0c565b6000600360026101000a81548160ff021916908315150217905550600754600854610e059190613722565b6009819055505b5b61107d565b60011515600360009054906101000a900460ff16151503610f2557600a543373ffffffffffffffffffffffffffffffffffffffff16311015610e89576040517f08c379a0000000000000000000000000000000000000000000000000000000008152600401610e8090613610565b60405180910390fd5b600a5434600754610e9a9190613630565b1115610edb576040517f08c379a0000000000000000000000000000000000000000000000000000000008152600401610ed2906136b0565b60405180910390fd5b600454600054610eeb9190613630565b6000819055506000600360006101000a81548160ff02191690831515021790555034600754610f1a9190613630565b60078190555061107c565b600a543373ffffffffffffffffffffffffffffffffffffffff16311015610f81576040517f08c379a0000000000000000000000000000000000000000000000000000000008152600401610f7890613610565b60405180910390fd5b600a5434600854610f929190613630565b1115610fd3576040517f08c379a0000000000000000000000000000000000000000000000000000000008152600401610fca906136b0565b60405180910390fd5b60075434600854610fe49190613630565b1015610fef57600080fd5b600454600154610fff9190613630565b6001819055506001600360006101000a81548160ff0219169083151502179055503460085461102e9190613630565b6008819055506007546008540361105f576001600360026101000a81548160ff02191690831515021790555061107b565b6000600360026101000a81548160ff0219169083151502179055505b5b5b5b611f1b565b60011515600360009054906101000a900460ff161515036117de57600560019054906101000a900473ffffffffffffffffffffffffffffffffffffffff1673ffffffffffffffffffffffffffffffffffffffff163373ffffffffffffffffffffffffffffffffffffffff161461112e576040517f08c379a0000000000000000000000000000000000000000000000000000000008152600401611125906137a2565b60405180910390fd5b60011515600360029054906101000a900460ff16151514611184576040517f08c379a000000000000000000000000000000000000000000000000000000000815260040161117b90613507565b60405180910390fd5b61118c61309b565b6000600560006101000a81548160ff021916908315150217905550600760008154809291906111ba90613556565b9190505560078190555060011515600360019054906101000a900460ff1615150361156e5760011515600360009054906101000a900460ff161515036113a057600a543373ffffffffffffffffffffffffffffffffffffffff16311015611256576040517f08c379a000000000000000000000000000000000000000000000000000000000815260040161124d90613610565b60405180910390fd5b600a54346007546112679190613630565b11156112a8576040517f08c379a000000000000000000000000000000000000000000000000000000000815260040161129f906136b0565b60405180910390fd5b6004546000546112b89190613630565b600081905550346007546112cc9190613630565b60078190555033600560016101000a81548173ffffffffffffffffffffffffffffffffffffffff021916908373ffffffffffffffffffffffffffffffffffffffff1602179055503373ffffffffffffffffffffffffffffffffffffffff167fdf9a51129930649214df58f542322c245372c6f2fa6fc3c9b40d927c597cd230344260405161135b9291906136d0565b60405180910390a26000600360006101000a81548160ff02191690831515021790555060076000815480929190611391906136f9565b91905055600781905550611569565b600754346008546113b19190613630565b10156113bc57600080fd5b600a543373ffffffffffffffffffffffffffffffffffffffff16311015611418576040517f08c379a000000000000000000000000000000000000000000000000000000000815260040161140f90613610565b60405180910390fd5b600a54346008546114299190613630565b111561146a576040517f08c379a0000000000000000000000000000000000000000000000000000000008152600401611461906136b0565b60405180910390fd5b60045460015461147a9190613630565b6001819055503460085461148e9190613630565b6008819055506000600360016101000a81548160ff02191690831515021790555033600660006101000a81548173ffffffffffffffffffffffffffffffffffffffff021916908373ffffffffffffffffffffffffffffffffffffffff1602179055506001600360006101000a81548160ff02191690831515021790555060075460085403611536576001600360026101000a81548160ff021916908315150217905550611568565b6000600360026101000a81548160ff0219169083151502179055506007546008546115619190613722565b6009819055505b5b6117d9565b60011515600360009054906101000a900460ff1615150361168157600a543373ffffffffffffffffffffffffffffffffffffffff163110156115e5576040517f08c379a00000000000000000000000000000000000000000000000000000000081526004016115dc90613610565b60405180910390fd5b600a54346007546115f69190613630565b1115611637576040517f08c379a000000000000000000000000000000000000000000000000000000000815260040161162e906136b0565b60405180910390fd5b6004546000546116479190613630565b6000819055506000600360006101000a81548160ff021916908315150217905550346007546116769190613630565b6007819055506117d8565b600a543373ffffffffffffffffffffffffffffffffffffffff163110156116dd576040517f08c379a00000000000000000000000000000000000000000000000000000000081526004016116d490613610565b60405180910390fd5b600a54346008546116ee9190613630565b111561172f576040517f08c379a0000000000000000000000000000000000000000000000000000000008152600401611726906136b0565b60405180910390fd5b600754346008546117409190613630565b101561174b57600080fd5b60045460015461175b9190613630565b6001819055506001600360006101000a81548160ff0219169083151502179055503460085461178a9190613630565b600881905550600754600854036117bb576001600360026101000a81548160ff0219169083151502179055506117d7565b6000600360026101000a81548160ff0219169083151502179055505b5b5b611f1a565b600660009054906101000a900473ffffffffffffffffffffffffffffffffffffffff1673ffffffffffffffffffffffffffffffffffffffff163373ffffffffffffffffffffffffffffffffffffffff161461186e576040517f08c379a0000000000000000000000000000000000000000000000000000000008152600401611865906137a2565b60405180910390fd5b60011515600360029054906101000a900460ff161515146118c4576040517f08c379a00000000000000000000000000000000000000000000000000000000081526004016118bb90613507565b60405180910390fd5b6118cc61309b565b6000600560006101000a81548160ff021916908315150217905550600760008154809291906118fa90613556565b9190505560078190555060011515600360019054906101000a900460ff16151503611cae5760011515600360009054906101000a900460ff16151503611ae057600a543373ffffffffffffffffffffffffffffffffffffffff16311015611996576040517f08c379a000000000000000000000000000000000000000000000000000000000815260040161198d90613610565b60405180910390fd5b600a54346007546119a79190613630565b11156119e8576040517f08c379a00000000000000000000000000000000000000000000000000000000081526004016119df906136b0565b60405180910390fd5b6004546000546119f89190613630565b60008190555034600754611a0c9190613630565b60078190555033600560016101000a81548173ffffffffffffffffffffffffffffffffffffffff021916908373ffffffffffffffffffffffffffffffffffffffff1602179055503373ffffffffffffffffffffffffffffffffffffffff167fdf9a51129930649214df58f542322c245372c6f2fa6fc3c9b40d927c597cd2303442604051611a9b9291906136d0565b60405180910390a26000600360006101000a81548160ff02191690831515021790555060076000815480929190611ad1906136f9565b91905055600781905550611ca9565b60075434600854611af19190613630565b1015611afc57600080fd5b600a543373ffffffffffffffffffffffffffffffffffffffff16311015611b58576040517f08c379a0000000000000000000000000000000000000000000000000000000008152600401611b4f90613610565b60405180910390fd5b600a5434600854611b699190613630565b1115611baa576040517f08c379a0000000000000000000000000000000000000000000000000000000008152600401611ba1906136b0565b60405180910390fd5b600454600154611bba9190613630565b60018190555034600854611bce9190613630565b6008819055506000600360016101000a81548160ff02191690831515021790555033600660006101000a81548173ffffffffffffffffffffffffffffffffffffffff021916908373ffffffffffffffffffffffffffffffffffffffff1602179055506001600360006101000a81548160ff02191690831515021790555060075460085403611c76576001600360026101000a81548160ff021916908315150217905550611ca8565b6000600360026101000a81548160ff021916908315150217905550600754600854611ca19190613722565b6009819055505b5b611f19565b60011515600360009054906101000a900460ff16151503611dc157600a543373ffffffffffffffffffffffffffffffffffffffff16311015611d25576040517f08c379a0000000000000000000000000000000000000000000000000000000008152600401611d1c90613610565b60405180910390fd5b600a5434600754611d369190613630565b1115611d77576040517f08c379a0000000000000000000000000000000000000000000000000000000008152600401611d6e906136b0565b60405180910390fd5b600454600054611d879190613630565b6000819055506000600360006101000a81548160ff02191690831515021790555034600754611db69190613630565b600781905550611f18565b600a543373ffffffffffffffffffffffffffffffffffffffff16311015611e1d576040517f08c379a0000000000000000000000000000000000000000000000000000000008152600401611e1490613610565b60405180910390fd5b600a5434600854611e2e9190613630565b1115611e6f576040517f08c379a0000000000000000000000000000000000000000000000000000000008152600401611e66906136b0565b60405180910390fd5b60075434600854611e809190613630565b1015611e8b57600080fd5b600454600154611e9b9190613630565b6001819055506001600360006101000a81548160ff02191690831515021790555034600854611eca9190613630565b60088190555060075460085403611efb576001600360026101000a81548160ff021916908315150217905550611f17565b6000600360026101000a81548160ff0219169083151502179055505b5b5b5b5b565b600a5481565b6000600560019054906101000a900473ffffffffffffffffffffffffffffffffffffffff1673ffffffffffffffffffffffffffffffffffffffff163373ffffffffffffffffffffffffffffffffffffffff1614611fb5576040517f08c379a0000000000000000000000000000000000000000000000000000000008152600401611fac9061380e565b60405180910390fd5b600054905090565b60075481565b60095481565b60025481565b60011515600360029054906101000a900460ff16151514612025576040517f08c379a000000000000000000000000000000000000000000000000000000000815260040161201c9061387a565b60405180910390fd5b60001515600560009054906101000a900460ff1615150361216657600560019054906101000a900473ffffffffffffffffffffffffffffffffffffffff1673ffffffffffffffffffffffffffffffffffffffff163373ffffffffffffffffffffffffffffffffffffffff16036120b5576001600560006101000a81548160ff021916908315150217905550612161565b600660009054906101000a900473ffffffffffffffffffffffffffffffffffffffff1673ffffffffffffffffffffffffffffffffffffffff163373ffffffffffffffffffffffffffffffffffffffff1614612145576040517f08c379a000000000000000000000000000000000000000000000000000000000815260040161213c9061390c565b60405180910390fd5b6001600560006101000a81548160ff0219169083151502179055505b612262565b600560019054906101000a900473ffffffffffffffffffffffffffffffffffffffff1673ffffffffffffffffffffffffffffffffffffffff163373ffffffffffffffffffffffffffffffffffffffff16036121c8576121c36130f0565b612261565b600660009054906101000a900473ffffffffffffffffffffffffffffffffffffffff1673ffffffffffffffffffffffffffffffffffffffff163373ffffffffffffffffffffffffffffffffffffffff1614612258576040517f08c379a000000000000000000000000000000000000000000000000000000000815260040161224f9061390c565b60405180910390fd5b6122606130f0565b5b5b565b600560019054906101000a900473ffffffffffffffffffffffffffffffffffffffff1673ffffffffffffffffffffffffffffffffffffffff163373ffffffffffffffffffffffffffffffffffffffff16036122f7576000600660009054906101000a900473ffffffffffffffffffffffffffffffffffffffff1690506122e981613234565b6122f161327e565b5061238b565b600660009054906101000a900473ffffffffffffffffffffffffffffffffffffffff1673ffffffffffffffffffffffffffffffffffffffff163373ffffffffffffffffffffffffffffffffffffffff161461235157600080fd5b6000600560019054906101000a900473ffffffffffffffffffffffffffffffffffffffff16905061238181613234565b61238961327e565b505b565b6000600660009054906101000a900473ffffffffffffffffffffffffffffffffffffffff1673ffffffffffffffffffffffffffffffffffffffff163373ffffffffffffffffffffffffffffffffffffffff161461241f576040517f08c379a00000000000000000000000000000000000000000000000000000000081526004016124169061380e565b60405180910390fd5b600154905090565b6001600360016101000a81548160ff0219169083151502179055612480576040517f08c379a00000000000000000000000000000000000000000000000000000000081526004016124779061399e565b60405180910390fd5b80620f42403373ffffffffffffffffffffffffffffffffffffffff16316124a79190613630565b10156124b257600080fd5b670de0b6b3a7640000816124c691906139be565b600a8190555050565b60001515600360029054906101000a900460ff1615150361256657600954341461252e576040517f08c379a000000000000000000000000000000000000000000000000000000000815260040161252590613a8a565b60405180910390fd5b3460075461253c9190613630565b6007819055506001600360026101000a81548160ff02191690831515021790555060006009819055505b565b60011515600360019054906101000a900460ff16151503612ac55760001515600360009054906101000a900460ff1615150361287957600560019054906101000a900473ffffffffffffffffffffffffffffffffffffffff1673ffffffffffffffffffffffffffffffffffffffff163373ffffffffffffffffffffffffffffffffffffffff160361262e576040517f08c379a000000000000000000000000000000000000000000000000000000000815260040161262590613475565b60405180910390fd5b60011515600360019054906101000a900460ff161515036127d75760011515600360009054906101000a900460ff1615150361274657346007546126729190613630565b60078190555033600560016101000a81548173ffffffffffffffffffffffffffffffffffffffff021916908373ffffffffffffffffffffffffffffffffffffffff1602179055503373ffffffffffffffffffffffffffffffffffffffff167fdf9a51129930649214df58f542322c245372c6f2fa6fc3c9b40d927c597cd23034426040516127019291906136d0565b60405180910390a26000600360006101000a81548160ff02191690831515021790555060076000815480929190612737906136f9565b919050556007819055506127d2565b346008546127549190613630565b6008819055506000600360016101000a81548160ff02191690831515021790555033600660006101000a81548173ffffffffffffffffffffffffffffffffffffffff021916908373ffffffffffffffffffffffffffffffffffffffff1602179055506001600360006101000a81548160ff0219169083151502179055505b612874565b60011515600360009054906101000a900460ff16151503612843576000600360006101000a81548160ff0219169083151502179055503460075461281b9190613630565b60078190555060076000815480929190612834906136f9565b91905055600781905550612873565b6001600360006101000a81548160ff0219169083151502179055503460085461286c9190613630565b6008819055505b5b612ac0565b60011515600360019054906101000a900460ff16151503612a225760011515600360009054906101000a900460ff1615150361299157346007546128bd9190613630565b60078190555033600560016101000a81548173ffffffffffffffffffffffffffffffffffffffff021916908373ffffffffffffffffffffffffffffffffffffffff1602179055503373ffffffffffffffffffffffffffffffffffffffff167fdf9a51129930649214df58f542322c245372c6f2fa6fc3c9b40d927c597cd230344260405161294c9291906136d0565b60405180910390a26000600360006101000a81548160ff02191690831515021790555060076000815480929190612982906136f9565b91905055600781905550612a1d565b3460085461299f9190613630565b6008819055506000600360016101000a81548160ff02191690831515021790555033600660006101000a81548173ffffffffffffffffffffffffffffffffffffffff021916908373ffffffffffffffffffffffffffffffffffffffff1602179055506001600360006101000a81548160ff0219169083151502179055505b612abf565b60011515600360009054906101000a900460ff16151503612a8e576000600360006101000a81548160ff02191690831515021790555034600754612a669190613630565b60078190555060076000815480929190612a7f906136f9565b91905055600781905550612abe565b6001600360006101000a81548160ff02191690831515021790555034600854612ab79190613630565b6008819055505b5b5b613093565b60011515600360009054906101000a900460ff16151503612dbb57600560019054906101000a900473ffffffffffffffffffffffffffffffffffffffff1673ffffffffffffffffffffffffffffffffffffffff163373ffffffffffffffffffffffffffffffffffffffff1614612b70576040517f08c379a0000000000000000000000000000000000000000000000000000000008152600401612b67906137a2565b60405180910390fd5b60011515600360019054906101000a900460ff16151503612d195760011515600360009054906101000a900460ff16151503612c885734600754612bb49190613630565b60078190555033600560016101000a81548173ffffffffffffffffffffffffffffffffffffffff021916908373ffffffffffffffffffffffffffffffffffffffff1602179055503373ffffffffffffffffffffffffffffffffffffffff167fdf9a51129930649214df58f542322c245372c6f2fa6fc3c9b40d927c597cd2303442604051612c439291906136d0565b60405180910390a26000600360006101000a81548160ff02191690831515021790555060076000815480929190612c79906136f9565b91905055600781905550612d14565b34600854612c969190613630565b6008819055506000600360016101000a81548160ff02191690831515021790555033600660006101000a81548173ffffffffffffffffffffffffffffffffffffffff021916908373ffffffffffffffffffffffffffffffffffffffff1602179055506001600360006101000a81548160ff0219169083151502179055505b612db6565b60011515600360009054906101000a900460ff16151503612d85576000600360006101000a81548160ff02191690831515021790555034600754612d5d9190613630565b60078190555060076000815480929190612d76906136f9565b91905055600781905550612db5565b6001600360006101000a81548160ff02191690831515021790555034600854612dae9190613630565b6008819055505b5b613092565b600660009054906101000a900473ffffffffffffffffffffffffffffffffffffffff1673ffffffffffffffffffffffffffffffffffffffff163373ffffffffffffffffffffffffffffffffffffffff1614612e4b576040517f08c379a0000000000000000000000000000000000000000000000000000000008152600401612e42906137a2565b60405180910390fd5b60011515600360019054906101000a900460ff16151503612ff45760011515600360009054906101000a900460ff16151503612f635734600754612e8f9190613630565b60078190555033600560016101000a81548173ffffffffffffffffffffffffffffffffffffffff021916908373ffffffffffffffffffffffffffffffffffffffff1602179055503373ffffffffffffffffffffffffffffffffffffffff167fdf9a51129930649214df58f542322c245372c6f2fa6fc3c9b40d927c597cd2303442604051612f1e9291906136d0565b60405180910390a26000600360006101000a81548160ff02191690831515021790555060076000815480929190612f54906136f9565b91905055600781905550612fef565b34600854612f719190613630565b6008819055506000600360016101000a81548160ff02191690831515021790555033600660006101000a81548173ffffffffffffffffffffffffffffffffffffffff021916908373ffffffffffffffffffffffffffffffffffffffff1602179055506001600360006101000a81548160ff0219169083151502179055505b613091565b60011515600360009054906101000a900460ff16151503613060576000600360006101000a81548160ff021916908315150217905550346007546130389190613630565b60078190555060076000815480929190613051906136f9565b91905055600781905550613090565b6001600360006101000a81548160ff021916908315150217905550346008546130899190613630565b6008819055505b5b5b5b565b60085481565b600a42336040516020016130b0929190613b45565b6040516020818303038152906040528051906020012060001c6130d39190613ba0565b60048190555060016004546130e89190613630565b600481905550565b60015460005411156131735760156000541161313c576000600560019054906101000a900473ffffffffffffffffffffffffffffffffffffffff16905061313681613234565b5061316e565b6000600660009054906101000a900473ffffffffffffffffffffffffffffffffffffffff16905061316c81613234565b505b61322a565b60015460005410156131f6576015600154116131bf576000600660009054906101000a900473ffffffffffffffffffffffffffffffffffffffff1690506131b981613234565b506131f1565b6000600560019054906101000a900473ffffffffffffffffffffffffffffffffffffffff1690506131ef81613234565b505b613229565b6131fe61309b565b60045460005461320e9190613630565b5060045460015461321f9190613630565b506132286130f0565b5b5b61323261327e565b565b8073ffffffffffffffffffffffffffffffffffffffff166108fc479081150290604051600060405180830381858888f1935050505015801561327a573d6000803e3d6000fd5b5050565b60008081905550600060018190555060006002819055506001600360006101000a81548160ff0219169083151502179055506001600360016101000a81548160ff0219169083151502179055506001600360026101000a81548160ff02191690831515021790555060006003806101000a81548160ff0219169083151502179055506000600560006101000a81548160ff021916908315150217905550600560019054906101000a905050600660009054906101000a905050600060078190555060006008819055506000600981905550670de0b6b3a7640000600a81905550565b6000819050919050565b61337381613360565b82525050565b600060208201905061338e600083018461336a565b92915050565b600080fd5b6133a281613360565b81146133ad57600080fd5b50565b6000813590506133bf81613399565b92915050565b6000602082840312156133db576133da613394565b5b60006133e9848285016133b0565b91505092915050565b600082825260208201905092915050565b7f646966666572656e74207573657273206d75737420706c61792066726f6d206460008201527f6966666572656e742077616c6c65747300000000000000000000000000000000602082015250565b600061345f6030836133f2565b915061346a82613403565b604082019050919050565b6000602082019050818103600083015261348e81613452565b9050919050565b7f706c656173652c207573652066756e6374696f6e2027657175616c697a65272060008201527f746f2072657475726e2064656274000000000000000000000000000000000000602082015250565b60006134f1602e836133f2565b91506134fc82613495565b604082019050919050565b60006020820190508181036000830152613520816134e4565b9050919050565b7f4e487b7100000000000000000000000000000000000000000000000000000000600052601160045260246000fd5b600061356182613360565b91507fffffffffffffffffffffffffffffffffffffffffffffffffffffffffffffffff820361359357613592613527565b5b600182019050919050565b7f796f75722062616c616e6365206973206c6f776572207468616e206d6178206260008201527f6574000000000000000000000000000000000000000000000000000000000000602082015250565b60006135fa6022836133f2565b91506136058261359e565b604082019050919050565b60006020820190508181036000830152613629816135ed565b9050919050565b600061363b82613360565b915061364683613360565b925082820190508082111561365e5761365d613527565b5b92915050565b7f796f75722062657420697320686967686572207468656e206d61782062657420600082015250565b600061369a6020836133f2565b91506136a582613664565b602082019050919050565b600060208201905081810360008301526136c98161368d565b9050919050565b60006040820190506136e5600083018561336a565b6136f2602083018461336a565b9392505050565b600061370482613360565b91506000820361371757613716613527565b5b600182039050919050565b600061372d82613360565b915061373883613360565b92508282039050818111156137505761374f613527565b5b92915050565b7f706c61792066726f6d2031206163636f756e7400000000000000000000000000600082015250565b600061378c6013836133f2565b915061379782613756565b602082019050919050565b600060208201905081810360008301526137bb8161377f565b9050919050565b7f796f752063616e20636865636b206f6e6c7920796f75722073636f7265730000600082015250565b60006137f8601e836133f2565b9150613803826137c2565b602082019050919050565b60006020820190508181036000830152613827816137eb565b9050919050565b7f736574207468652073616d65206265742e205573652027657175616c697a6527600082015250565b60006138646020836133f2565b915061386f8261382e565b602082019050919050565b6000602082019050818103600083015261389381613857565b9050919050565b7f446f206e6f7420696e746572666572652077697468207468652067616d65706c60008201527f61792066726f6d2074686972642d7061727479206163636f756e747300000000602082015250565b60006138f6603c836133f2565b91506139018261389a565b604082019050919050565b60006020820190508181036000830152613925816138e9565b9050919050565b7f796f752063616e2774206368616e6765206d61782062657420647572696e672060008201527f67616d6500000000000000000000000000000000000000000000000000000000602082015250565b60006139886024836133f2565b91506139938261392c565b604082019050919050565b600060208201905081810360008301526139b78161397b565b9050919050565b60006139c982613360565b91506139d483613360565b9250817fffffffffffffffffffffffffffffffffffffffffffffffffffffffffffffffff0483118215151615613a0d57613a0c613527565b5b828202905092915050565b7f706c6561736520696e6469636174652074686520616d6f756e74206f6620706160008201527f796d656e7420657175616c20746f207468652064656274000000000000000000602082015250565b6000613a746037836133f2565b9150613a7f82613a18565b604082019050919050565b60006020820190508181036000830152613aa381613a67565b9050919050565b6000819050919050565b613ac5613ac082613360565b613aaa565b82525050565b600073ffffffffffffffffffffffffffffffffffffffff82169050919050565b6000613af682613acb565b9050919050565b60008160601b9050919050565b6000613b1582613afd565b9050919050565b6000613b2782613b0a565b9050919050565b613b3f613b3a82613aeb565b613b1c565b82525050565b6000613b518285613ab4565b602082019150613b618284613b2e565b6014820191508190509392505050565b7f4e487b7100000000000000000000000000000000000000000000000000000000600052601260045260246000fd5b6000613bab82613360565b9150613bb683613360565b925082613bc657613bc5613b71565b5b82820690509291505056fea2646970667358221220abdaac8cfdea955faca073140cdb0a06be7b9ae4205655532461764f151b28e464736f6c63430008100033",
			"opcodes": "PUSH1 0x80 PUSH1 0x40 MSTORE PUSH1 0x0 DUP1 SSTORE PUSH1 0x0 PUSH1 0x1 SSTORE PUSH1 0x0 PUSH1 0x2 SSTORE PUSH1 0x1 PUSH1 0x3 PUSH1 0x0 PUSH2 0x100 EXP DUP2 SLOAD DUP2 PUSH1 0xFF MUL NOT AND SWAP1 DUP4 ISZERO ISZERO MUL OR SWAP1 SSTORE POP PUSH1 0x1 PUSH1 0x3 PUSH1 0x1 PUSH2 0x100 EXP DUP2 SLOAD DUP2 PUSH1 0xFF MUL NOT AND SWAP1 DUP4 ISZERO ISZERO MUL OR SWAP1 SSTORE POP PUSH1 0x1 PUSH1 0x3 PUSH1 0x2 PUSH2 0x100 EXP DUP2 SLOAD DUP2 PUSH1 0xFF MUL NOT AND SWAP1 DUP4 ISZERO ISZERO MUL OR SWAP1 SSTORE POP PUSH1 0x0 PUSH1 0x3 DUP1 PUSH2 0x100 EXP DUP2 SLOAD DUP2 PUSH1 0xFF MUL NOT AND SWAP1 DUP4 ISZERO ISZERO MUL OR SWAP1 SSTORE POP PUSH1 0x0 PUSH1 0x5 PUSH1 0x0 PUSH2 0x100 EXP DUP2 SLOAD DUP2 PUSH1 0xFF MUL NOT AND SWAP1 DUP4 ISZERO ISZERO MUL OR SWAP1 SSTORE POP PUSH1 0x0 PUSH1 0x7 SSTORE PUSH1 0x0 PUSH1 0x8 SSTORE PUSH1 0x0 PUSH1 0x9 SSTORE PUSH8 0xDE0B6B3A7640000 PUSH1 0xA SSTORE CALLVALUE DUP1 ISZERO PUSH2 0xBF JUMPI PUSH1 0x0 DUP1 REVERT JUMPDEST POP PUSH2 0x3C07 DUP1 PUSH2 0xCF PUSH1 0x0 CODECOPY PUSH1 0x0 RETURN INVALID PUSH1 0x80 PUSH1 0x40 MSTORE PUSH1 0x4 CALLDATASIZE LT PUSH2 0xC2 JUMPI PUSH1 0x0 CALLDATALOAD PUSH1 0xE0 SHR DUP1 PUSH4 0x9DD63D6B GT PUSH2 0x7F JUMPI DUP1 PUSH4 0xAE47A290 GT PUSH2 0x59 JUMPI DUP1 PUSH4 0xAE47A290 EQ PUSH2 0x1F4 JUMPI DUP1 PUSH4 0xB86A770C EQ PUSH2 0x21D JUMPI DUP1 PUSH4 0xC2897B10 EQ PUSH2 0x227 JUMPI DUP1 PUSH4 0xC41A9892 EQ PUSH2 0x231 JUMPI PUSH2 0xC2 JUMP JUMPDEST DUP1 PUSH4 0x9DD63D6B EQ PUSH2 0x1A8 JUMPI DUP1 PUSH4 0xA7A1ED72 EQ PUSH2 0x1BF JUMPI DUP1 PUSH4 0xAC22C2B4 EQ PUSH2 0x1C9 JUMPI PUSH2 0xC2 JUMP JUMPDEST DUP1 PUSH4 0xDD6ED9C EQ PUSH2 0xC7 JUMPI DUP1 PUSH4 0x37B4D863 EQ PUSH2 0xD1 JUMPI DUP1 PUSH4 0x43000315 EQ PUSH2 0xFC JUMPI DUP1 PUSH4 0x5DF3D87E EQ PUSH2 0x127 JUMPI DUP1 PUSH4 0x6F97059B EQ PUSH2 0x152 JUMPI DUP1 PUSH4 0x76CDB03B EQ PUSH2 0x17D JUMPI JUMPDEST PUSH1 0x0 DUP1 REVERT JUMPDEST PUSH2 0xCF PUSH2 0x25C JUMP JUMPDEST STOP JUMPDEST CALLVALUE DUP1 ISZERO PUSH2 0xDD JUMPI PUSH1 0x0 DUP1 REVERT JUMPDEST POP PUSH2 0xE6 PUSH2 0x1F1D JUMP JUMPDEST PUSH1 0x40 MLOAD PUSH2 0xF3 SWAP2 SWAP1 PUSH2 0x3379 JUMP JUMPDEST PUSH1 0x40 MLOAD DUP1 SWAP2 SUB SWAP1 RETURN JUMPDEST CALLVALUE DUP1 ISZERO PUSH2 0x108 JUMPI PUSH1 0x0 DUP1 REVERT JUMPDEST POP PUSH2 0x111 PUSH2 0x1F23 JUMP JUMPDEST PUSH1 0x40 MLOAD PUSH2 0x11E SWAP2 SWAP1 PUSH2 0x3379 JUMP JUMPDEST PUSH1 0x40 MLOAD DUP1 SWAP2 SUB SWAP1 RETURN JUMPDEST CALLVALUE DUP1 ISZERO PUSH2 0x133 JUMPI PUSH1 0x0 DUP1 REVERT JUMPDEST POP PUSH2 0x13C PUSH2 0x1FBD JUMP JUMPDEST PUSH1 0x40 MLOAD PUSH2 0x149 SWAP2 SWAP1 PUSH2 0x3379 JUMP JUMPDEST PUSH1 0x40 MLOAD DUP1 SWAP2 SUB SWAP1 RETURN JUMPDEST CALLVALUE DUP1 ISZERO PUSH2 0x15E JUMPI PUSH1 0x0 DUP1 REVERT JUMPDEST POP PUSH2 0x167 PUSH2 0x1FC3 JUMP JUMPDEST PUSH1 0x40 MLOAD PUSH2 0x174 SWAP2 SWAP1 PUSH2 0x3379 JUMP JUMPDEST PUSH1 0x40 MLOAD DUP1 SWAP2 SUB SWAP1 RETURN JUMPDEST CALLVALUE DUP1 ISZERO PUSH2 0x189 JUMPI PUSH1 0x0 DUP1 REVERT JUMPDEST POP PUSH2 0x192 PUSH2 0x1FC9 JUMP JUMPDEST PUSH1 0x40 MLOAD PUSH2 0x19F SWAP2 SWAP1 PUSH2 0x3379 JUMP JUMPDEST PUSH1 0x40 MLOAD DUP1 SWAP2 SUB SWAP1 RETURN JUMPDEST CALLVALUE DUP1 ISZERO PUSH2 0x1B4 JUMPI PUSH1 0x0 DUP1 REVERT JUMPDEST POP PUSH2 0x1BD PUSH2 0x1FCF JUMP JUMPDEST STOP JUMPDEST PUSH2 0x1C7 PUSH2 0x2264 JUMP JUMPDEST STOP JUMPDEST CALLVALUE DUP1 ISZERO PUSH2 0x1D5 JUMPI PUSH1 0x0 DUP1 REVERT JUMPDEST POP PUSH2 0x1DE PUSH2 0x238D JUMP JUMPDEST PUSH1 0x40 MLOAD PUSH2 0x1EB SWAP2 SWAP1 PUSH2 0x3379 JUMP JUMPDEST PUSH1 0x40 MLOAD DUP1 SWAP2 SUB SWAP1 RETURN JUMPDEST CALLVALUE DUP1 ISZERO PUSH2 0x200 JUMPI PUSH1 0x0 DUP1 REVERT JUMPDEST POP PUSH2 0x21B PUSH1 0x4 DUP1 CALLDATASIZE SUB DUP2 ADD SWAP1 PUSH2 0x216 SWAP2 SWAP1 PUSH2 0x33C5 JUMP JUMPDEST PUSH2 0x2427 JUMP JUMPDEST STOP JUMPDEST PUSH2 0x225 PUSH2 0x24CF JUMP JUMPDEST STOP JUMPDEST PUSH2 0x22F PUSH2 0x2568 JUMP JUMPDEST STOP JUMPDEST CALLVALUE DUP1 ISZERO PUSH2 0x23D JUMPI PUSH1 0x0 DUP1 REVERT JUMPDEST POP PUSH2 0x246 PUSH2 0x3095 JUMP JUMPDEST PUSH1 0x40 MLOAD PUSH2 0x253 SWAP2 SWAP1 PUSH2 0x3379 JUMP JUMPDEST PUSH1 0x40 MLOAD DUP1 SWAP2 SUB SWAP1 RETURN JUMPDEST PUSH1 0x1 ISZERO ISZERO PUSH1 0x3 PUSH1 0x1 SWAP1 SLOAD SWAP1 PUSH2 0x100 EXP SWAP1 DIV PUSH1 0xFF AND ISZERO ISZERO SUB PUSH2 0x1083 JUMPI PUSH1 0x0 ISZERO ISZERO PUSH1 0x3 PUSH1 0x0 SWAP1 SLOAD SWAP1 PUSH2 0x100 EXP SWAP1 DIV PUSH1 0xFF AND ISZERO ISZERO SUB PUSH2 0x9D2 JUMPI PUSH1 0x5 PUSH1 0x1 SWAP1 SLOAD SWAP1 PUSH2 0x100 EXP SWAP1 DIV PUSH20 0xFFFFFFFFFFFFFFFFFFFFFFFFFFFFFFFFFFFFFFFF AND PUSH20 0xFFFFFFFFFFFFFFFFFFFFFFFFFFFFFFFFFFFFFFFF AND CALLER PUSH20 0xFFFFFFFFFFFFFFFFFFFFFFFFFFFFFFFFFFFFFFFF AND SUB PUSH2 0x322 JUMPI PUSH1 0x40 MLOAD PUSH32 0x8C379A000000000000000000000000000000000000000000000000000000000 DUP2 MSTORE PUSH1 0x4 ADD PUSH2 0x319 SWAP1 PUSH2 0x3475 JUMP JUMPDEST PUSH1 0x40 MLOAD DUP1 SWAP2 SUB SWAP1 REVERT JUMPDEST PUSH1 0x1 ISZERO ISZERO PUSH1 0x3 PUSH1 0x2 SWAP1 SLOAD SWAP1 PUSH2 0x100 EXP SWAP1 DIV PUSH1 0xFF AND ISZERO ISZERO EQ PUSH2 0x378 JUMPI PUSH1 0x40 MLOAD PUSH32 0x8C379A000000000000000000000000000000000000000000000000000000000 DUP2 MSTORE PUSH1 0x4 ADD PUSH2 0x36F SWAP1 PUSH2 0x3507 JUMP JUMPDEST PUSH1 0x40 MLOAD DUP1 SWAP2 SUB SWAP1 REVERT JUMPDEST PUSH2 0x380 PUSH2 0x309B JUMP JUMPDEST PUSH1 0x0 PUSH1 0x5 PUSH1 0x0 PUSH2 0x100 EXP DUP2 SLOAD DUP2 PUSH1 0xFF MUL NOT AND SWAP1 DUP4 ISZERO ISZERO MUL OR SWAP1 SSTORE POP PUSH1 0x7 PUSH1 0x0 DUP2 SLOAD DUP1 SWAP3 SWAP2 SWAP1 PUSH2 0x3AE SWAP1 PUSH2 0x3556 JUMP JUMPDEST SWAP2 SWAP1 POP SSTORE PUSH1 0x7 DUP2 SWAP1 SSTORE POP PUSH1 0x1 ISZERO ISZERO PUSH1 0x3 PUSH1 0x1 SWAP1 SLOAD SWAP1 PUSH2 0x100 EXP SWAP1 DIV PUSH1 0xFF AND ISZERO ISZERO SUB PUSH2 0x762 JUMPI PUSH1 0x1 ISZERO ISZERO PUSH1 0x3 PUSH1 0x0 SWAP1 SLOAD SWAP1 PUSH2 0x100 EXP SWAP1 DIV PUSH1 0xFF AND ISZERO ISZERO SUB PUSH2 0x594 JUMPI PUSH1 0xA SLOAD CALLER PUSH20 0xFFFFFFFFFFFFFFFFFFFFFFFFFFFFFFFFFFFFFFFF AND BALANCE LT ISZERO PUSH2 0x44A JUMPI PUSH1 0x40 MLOAD PUSH32 0x8C379A000000000000000000000000000000000000000000000000000000000 DUP2 MSTORE PUSH1 0x4 ADD PUSH2 0x441 SWAP1 PUSH2 0x3610 JUMP JUMPDEST PUSH1 0x40 MLOAD DUP1 SWAP2 SUB SWAP1 REVERT JUMPDEST PUSH1 0xA SLOAD CALLVALUE PUSH1 0x7 SLOAD PUSH2 0x45B SWAP2 SWAP1 PUSH2 0x3630 JUMP JUMPDEST GT ISZERO PUSH2 0x49C JUMPI PUSH1 0x40 MLOAD PUSH32 0x8C379A000000000000000000000000000000000000000000000000000000000 DUP2 MSTORE PUSH1 0x4 ADD PUSH2 0x493 SWAP1 PUSH2 0x36B0 JUMP JUMPDEST PUSH1 0x40 MLOAD DUP1 SWAP2 SUB SWAP1 REVERT JUMPDEST PUSH1 0x4 SLOAD PUSH1 0x0 SLOAD PUSH2 0x4AC SWAP2 SWAP1 PUSH2 0x3630 JUMP JUMPDEST PUSH1 0x0 DUP2 SWAP1 SSTORE POP CALLVALUE PUSH1 0x7 SLOAD PUSH2 0x4C0 SWAP2 SWAP1 PUSH2 0x3630 JUMP JUMPDEST PUSH1 0x7 DUP2 SWAP1 SSTORE POP CALLER PUSH1 0x5 PUSH1 0x1 PUSH2 0x100 EXP DUP2 SLOAD DUP2 PUSH20 0xFFFFFFFFFFFFFFFFFFFFFFFFFFFFFFFFFFFFFFFF MUL NOT AND SWAP1 DUP4 PUSH20 0xFFFFFFFFFFFFFFFFFFFFFFFFFFFFFFFFFFFFFFFF AND MUL OR SWAP1 SSTORE POP CALLER PUSH20 0xFFFFFFFFFFFFFFFFFFFFFFFFFFFFFFFFFFFFFFFF AND PUSH32 0xDF9A51129930649214DF58F542322C245372C6F2FA6FC3C9B40D927C597CD230 CALLVALUE TIMESTAMP PUSH1 0x40 MLOAD PUSH2 0x54F SWAP3 SWAP2 SWAP1 PUSH2 0x36D0 JUMP JUMPDEST PUSH1 0x40 MLOAD DUP1 SWAP2 SUB SWAP1 LOG2 PUSH1 0x0 PUSH1 0x3 PUSH1 0x0 PUSH2 0x100 EXP DUP2 SLOAD DUP2 PUSH1 0xFF MUL NOT AND SWAP1 DUP4 ISZERO ISZERO MUL OR SWAP1 SSTORE POP PUSH1 0x7 PUSH1 0x0 DUP2 SLOAD DUP1 SWAP3 SWAP2 SWAP1 PUSH2 0x585 SWAP1 PUSH2 0x36F9 JUMP JUMPDEST SWAP2 SWAP1 POP SSTORE PUSH1 0x7 DUP2 SWAP1 SSTORE POP PUSH2 0x75D JUMP JUMPDEST PUSH1 0x7 SLOAD CALLVALUE PUSH1 0x8 SLOAD PUSH2 0x5A5 SWAP2 SWAP1 PUSH2 0x3630 JUMP JUMPDEST LT ISZERO PUSH2 0x5B0 JUMPI PUSH1 0x0 DUP1 REVERT JUMPDEST PUSH1 0xA SLOAD CALLER PUSH20 0xFFFFFFFFFFFFFFFFFFFFFFFFFFFFFFFFFFFFFFFF AND BALANCE LT ISZERO PUSH2 0x60C JUMPI PUSH1 0x40 MLOAD PUSH32 0x8C379A000000000000000000000000000000000000000000000000000000000 DUP2 MSTORE PUSH1 0x4 ADD PUSH2 0x603 SWAP1 PUSH2 0x3610 JUMP JUMPDEST PUSH1 0x40 MLOAD DUP1 SWAP2 SUB SWAP1 REVERT JUMPDEST PUSH1 0xA SLOAD CALLVALUE PUSH1 0x8 SLOAD PUSH2 0x61D SWAP2 SWAP1 PUSH2 0x3630 JUMP JUMPDEST GT ISZERO PUSH2 0x65E JUMPI PUSH1 0x40 MLOAD PUSH32 0x8C379A000000000000000000000000000000000000000000000000000000000 DUP2 MSTORE PUSH1 0x4 ADD PUSH2 0x655 SWAP1 PUSH2 0x36B0 JUMP JUMPDEST PUSH1 0x40 MLOAD DUP1 SWAP2 SUB SWAP1 REVERT JUMPDEST PUSH1 0x4 SLOAD PUSH1 0x1 SLOAD PUSH2 0x66E SWAP2 SWAP1 PUSH2 0x3630 JUMP JUMPDEST PUSH1 0x1 DUP2 SWAP1 SSTORE POP CALLVALUE PUSH1 0x8 SLOAD PUSH2 0x682 SWAP2 SWAP1 PUSH2 0x3630 JUMP JUMPDEST PUSH1 0x8 DUP2 SWAP1 SSTORE POP PUSH1 0x0 PUSH1 0x3 PUSH1 0x1 PUSH2 0x100 EXP DUP2 SLOAD DUP2 PUSH1 0xFF MUL NOT AND SWAP1 DUP4 ISZERO ISZERO MUL OR SWAP1 SSTORE POP CALLER PUSH1 0x6 PUSH1 0x0 PUSH2 0x100 EXP DUP2 SLOAD DUP2 PUSH20 0xFFFFFFFFFFFFFFFFFFFFFFFFFFFFFFFFFFFFFFFF MUL NOT AND SWAP1 DUP4 PUSH20 0xFFFFFFFFFFFFFFFFFFFFFFFFFFFFFFFFFFFFFFFF AND MUL OR SWAP1 SSTORE POP PUSH1 0x1 PUSH1 0x3 PUSH1 0x0 PUSH2 0x100 EXP DUP2 SLOAD DUP2 PUSH1 0xFF MUL NOT AND SWAP1 DUP4 ISZERO ISZERO MUL OR SWAP1 SSTORE POP PUSH1 0x7 SLOAD PUSH1 0x8 SLOAD SUB PUSH2 0x72A JUMPI PUSH1 0x1 PUSH1 0x3 PUSH1 0x2 PUSH2 0x100 EXP DUP2 SLOAD DUP2 PUSH1 0xFF MUL NOT AND SWAP1 DUP4 ISZERO ISZERO MUL OR SWAP1 SSTORE POP PUSH2 0x75C JUMP JUMPDEST PUSH1 0x0 PUSH1 0x3 PUSH1 0x2 PUSH2 0x100 EXP DUP2 SLOAD DUP2 PUSH1 0xFF MUL NOT AND SWAP1 DUP4 ISZERO ISZERO MUL OR SWAP1 SSTORE POP PUSH1 0x7 SLOAD PUSH1 0x8 SLOAD PUSH2 0x755 SWAP2 SWAP1 PUSH2 0x3722 JUMP JUMPDEST PUSH1 0x9 DUP2 SWAP1 SSTORE POP JUMPDEST JUMPDEST PUSH2 0x9CD JUMP JUMPDEST PUSH1 0x1 ISZERO ISZERO PUSH1 0x3 PUSH1 0x0 SWAP1 SLOAD SWAP1 PUSH2 0x100 EXP SWAP1 DIV PUSH1 0xFF AND ISZERO ISZERO SUB PUSH2 0x875 JUMPI PUSH1 0xA SLOAD CALLER PUSH20 0xFFFFFFFFFFFFFFFFFFFFFFFFFFFFFFFFFFFFFFFF AND BALANCE LT ISZERO PUSH2 0x7D9 JUMPI PUSH1 0x40 MLOAD PUSH32 0x8C379A000000000000000000000000000000000000000000000000000000000 DUP2 MSTORE PUSH1 0x4 ADD PUSH2 0x7D0 SWAP1 PUSH2 0x3610 JUMP JUMPDEST PUSH1 0x40 MLOAD DUP1 SWAP2 SUB SWAP1 REVERT JUMPDEST PUSH1 0xA SLOAD CALLVALUE PUSH1 0x7 SLOAD PUSH2 0x7EA SWAP2 SWAP1 PUSH2 0x3630 JUMP JUMPDEST GT ISZERO PUSH2 0x82B JUMPI PUSH1 0x40 MLOAD PUSH32 0x8C379A000000000000000000000000000000000000000000000000000000000 DUP2 MSTORE PUSH1 0x4 ADD PUSH2 0x822 SWAP1 PUSH2 0x36B0 JUMP JUMPDEST PUSH1 0x40 MLOAD DUP1 SWAP2 SUB SWAP1 REVERT JUMPDEST PUSH1 0x4 SLOAD PUSH1 0x0 SLOAD PUSH2 0x83B SWAP2 SWAP1 PUSH2 0x3630 JUMP JUMPDEST PUSH1 0x0 DUP2 SWAP1 SSTORE POP PUSH1 0x0 PUSH1 0x3 PUSH1 0x0 PUSH2 0x100 EXP DUP2 SLOAD DUP2 PUSH1 0xFF MUL NOT AND SWAP1 DUP4 ISZERO ISZERO MUL OR SWAP1 SSTORE POP CALLVALUE PUSH1 0x7 SLOAD PUSH2 0x86A SWAP2 SWAP1 PUSH2 0x3630 JUMP JUMPDEST PUSH1 0x7 DUP2 SWAP1 SSTORE POP PUSH2 0x9CC JUMP JUMPDEST PUSH1 0xA SLOAD CALLER PUSH20 0xFFFFFFFFFFFFFFFFFFFFFFFFFFFFFFFFFFFFFFFF AND BALANCE LT ISZERO PUSH2 0x8D1 JUMPI PUSH1 0x40 MLOAD PUSH32 0x8C379A000000000000000000000000000000000000000000000000000000000 DUP2 MSTORE PUSH1 0x4 ADD PUSH2 0x8C8 SWAP1 PUSH2 0x3610 JUMP JUMPDEST PUSH1 0x40 MLOAD DUP1 SWAP2 SUB SWAP1 REVERT JUMPDEST PUSH1 0xA SLOAD CALLVALUE PUSH1 0x8 SLOAD PUSH2 0x8E2 SWAP2 SWAP1 PUSH2 0x3630 JUMP JUMPDEST GT ISZERO PUSH2 0x923 JUMPI PUSH1 0x40 MLOAD PUSH32 0x8C379A000000000000000000000000000000000000000000000000000000000 DUP2 MSTORE PUSH1 0x4 ADD PUSH2 0x91A SWAP1 PUSH2 0x36B0 JUMP JUMPDEST PUSH1 0x40 MLOAD DUP1 SWAP2 SUB SWAP1 REVERT JUMPDEST PUSH1 0x7 SLOAD CALLVALUE PUSH1 0x8 SLOAD PUSH2 0x934 SWAP2 SWAP1 PUSH2 0x3630 JUMP JUMPDEST LT ISZERO PUSH2 0x93F JUMPI PUSH1 0x0 DUP1 REVERT JUMPDEST PUSH1 0x4 SLOAD PUSH1 0x1 SLOAD PUSH2 0x94F SWAP2 SWAP1 PUSH2 0x3630 JUMP JUMPDEST PUSH1 0x1 DUP2 SWAP1 SSTORE POP PUSH1 0x1 PUSH1 0x3 PUSH1 0x0 PUSH2 0x100 EXP DUP2 SLOAD DUP2 PUSH1 0xFF MUL NOT AND SWAP1 DUP4 ISZERO ISZERO MUL OR SWAP1 SSTORE POP CALLVALUE PUSH1 0x8 SLOAD PUSH2 0x97E SWAP2 SWAP1 PUSH2 0x3630 JUMP JUMPDEST PUSH1 0x8 DUP2 SWAP1 SSTORE POP PUSH1 0x7 SLOAD PUSH1 0x8 SLOAD SUB PUSH2 0x9AF JUMPI PUSH1 0x1 PUSH1 0x3 PUSH1 0x2 PUSH2 0x100 EXP DUP2 SLOAD DUP2 PUSH1 0xFF MUL NOT AND SWAP1 DUP4 ISZERO ISZERO MUL OR SWAP1 SSTORE POP PUSH2 0x9CB JUMP JUMPDEST PUSH1 0x0 PUSH1 0x3 PUSH1 0x2 PUSH2 0x100 EXP DUP2 SLOAD DUP2 PUSH1 0xFF MUL NOT AND SWAP1 DUP4 ISZERO ISZERO MUL OR SWAP1 SSTORE POP JUMPDEST JUMPDEST JUMPDEST PUSH2 0x107E JUMP JUMPDEST PUSH1 0x1 ISZERO ISZERO PUSH1 0x3 PUSH1 0x2 SWAP1 SLOAD SWAP1 PUSH2 0x100 EXP SWAP1 DIV PUSH1 0xFF AND ISZERO ISZERO EQ PUSH2 0xA28 JUMPI PUSH1 0x40 MLOAD PUSH32 0x8C379A000000000000000000000000000000000000000000000000000000000 DUP2 MSTORE PUSH1 0x4 ADD PUSH2 0xA1F SWAP1 PUSH2 0x3507 JUMP JUMPDEST PUSH1 0x40 MLOAD DUP1 SWAP2 SUB SWAP1 REVERT JUMPDEST PUSH2 0xA30 PUSH2 0x309B JUMP JUMPDEST PUSH1 0x0 PUSH1 0x5 PUSH1 0x0 PUSH2 0x100 EXP DUP2 SLOAD DUP2 PUSH1 0xFF MUL NOT AND SWAP1 DUP4 ISZERO ISZERO MUL OR SWAP1 SSTORE POP PUSH1 0x7 PUSH1 0x0 DUP2 SLOAD DUP1 SWAP3 SWAP2 SWAP1 PUSH2 0xA5E SWAP1 PUSH2 0x3556 JUMP JUMPDEST SWAP2 SWAP1 POP SSTORE PUSH1 0x7 DUP2 SWAP1 SSTORE POP PUSH1 0x1 ISZERO ISZERO PUSH1 0x3 PUSH1 0x1 SWAP1 SLOAD SWAP1 PUSH2 0x100 EXP SWAP1 DIV PUSH1 0xFF AND ISZERO ISZERO SUB PUSH2 0xE12 JUMPI PUSH1 0x1 ISZERO ISZERO PUSH1 0x3 PUSH1 0x0 SWAP1 SLOAD SWAP1 PUSH2 0x100 EXP SWAP1 DIV PUSH1 0xFF AND ISZERO ISZERO SUB PUSH2 0xC44 JUMPI PUSH1 0xA SLOAD CALLER PUSH20 0xFFFFFFFFFFFFFFFFFFFFFFFFFFFFFFFFFFFFFFFF AND BALANCE LT ISZERO PUSH2 0xAFA JUMPI PUSH1 0x40 MLOAD PUSH32 0x8C379A000000000000000000000000000000000000000000000000000000000 DUP2 MSTORE PUSH1 0x4 ADD PUSH2 0xAF1 SWAP1 PUSH2 0x3610 JUMP JUMPDEST PUSH1 0x40 MLOAD DUP1 SWAP2 SUB SWAP1 REVERT JUMPDEST PUSH1 0xA SLOAD CALLVALUE PUSH1 0x7 SLOAD PUSH2 0xB0B SWAP2 SWAP1 PUSH2 0x3630 JUMP JUMPDEST GT ISZERO PUSH2 0xB4C JUMPI PUSH1 0x40 MLOAD PUSH32 0x8C379A000000000000000000000000000000000000000000000000000000000 DUP2 MSTORE PUSH1 0x4 ADD PUSH2 0xB43 SWAP1 PUSH2 0x36B0 JUMP JUMPDEST PUSH1 0x40 MLOAD DUP1 SWAP2 SUB SWAP1 REVERT JUMPDEST PUSH1 0x4 SLOAD PUSH1 0x0 SLOAD PUSH2 0xB5C SWAP2 SWAP1 PUSH2 0x3630 JUMP JUMPDEST PUSH1 0x0 DUP2 SWAP1 SSTORE POP CALLVALUE PUSH1 0x7 SLOAD PUSH2 0xB70 SWAP2 SWAP1 PUSH2 0x3630 JUMP JUMPDEST PUSH1 0x7 DUP2 SWAP1 SSTORE POP CALLER PUSH1 0x5 PUSH1 0x1 PUSH2 0x100 EXP DUP2 SLOAD DUP2 PUSH20 0xFFFFFFFFFFFFFFFFFFFFFFFFFFFFFFFFFFFFFFFF MUL NOT AND SWAP1 DUP4 PUSH20 0xFFFFFFFFFFFFFFFFFFFFFFFFFFFFFFFFFFFFFFFF AND MUL OR SWAP1 SSTORE POP CALLER PUSH20 0xFFFFFFFFFFFFFFFFFFFFFFFFFFFFFFFFFFFFFFFF AND PUSH32 0xDF9A51129930649214DF58F542322C245372C6F2FA6FC3C9B40D927C597CD230 CALLVALUE TIMESTAMP PUSH1 0x40 MLOAD PUSH2 0xBFF SWAP3 SWAP2 SWAP1 PUSH2 0x36D0 JUMP JUMPDEST PUSH1 0x40 MLOAD DUP1 SWAP2 SUB SWAP1 LOG2 PUSH1 0x0 PUSH1 0x3 PUSH1 0x0 PUSH2 0x100 EXP DUP2 SLOAD DUP2 PUSH1 0xFF MUL NOT AND SWAP1 DUP4 ISZERO ISZERO MUL OR SWAP1 SSTORE POP PUSH1 0x7 PUSH1 0x0 DUP2 SLOAD DUP1 SWAP3 SWAP2 SWAP1 PUSH2 0xC35 SWAP1 PUSH2 0x36F9 JUMP JUMPDEST SWAP2 SWAP1 POP SSTORE PUSH1 0x7 DUP2 SWAP1 SSTORE POP PUSH2 0xE0D JUMP JUMPDEST PUSH1 0x7 SLOAD CALLVALUE PUSH1 0x8 SLOAD PUSH2 0xC55 SWAP2 SWAP1 PUSH2 0x3630 JUMP JUMPDEST LT ISZERO PUSH2 0xC60 JUMPI PUSH1 0x0 DUP1 REVERT JUMPDEST PUSH1 0xA SLOAD CALLER PUSH20 0xFFFFFFFFFFFFFFFFFFFFFFFFFFFFFFFFFFFFFFFF AND BALANCE LT ISZERO PUSH2 0xCBC JUMPI PUSH1 0x40 MLOAD PUSH32 0x8C379A000000000000000000000000000000000000000000000000000000000 DUP2 MSTORE PUSH1 0x4 ADD PUSH2 0xCB3 SWAP1 PUSH2 0x3610 JUMP JUMPDEST PUSH1 0x40 MLOAD DUP1 SWAP2 SUB SWAP1 REVERT JUMPDEST PUSH1 0xA SLOAD CALLVALUE PUSH1 0x8 SLOAD PUSH2 0xCCD SWAP2 SWAP1 PUSH2 0x3630 JUMP JUMPDEST GT ISZERO PUSH2 0xD0E JUMPI PUSH1 0x40 MLOAD PUSH32 0x8C379A000000000000000000000000000000000000000000000000000000000 DUP2 MSTORE PUSH1 0x4 ADD PUSH2 0xD05 SWAP1 PUSH2 0x36B0 JUMP JUMPDEST PUSH1 0x40 MLOAD DUP1 SWAP2 SUB SWAP1 REVERT JUMPDEST PUSH1 0x4 SLOAD PUSH1 0x1 SLOAD PUSH2 0xD1E SWAP2 SWAP1 PUSH2 0x3630 JUMP JUMPDEST PUSH1 0x1 DUP2 SWAP1 SSTORE POP CALLVALUE PUSH1 0x8 SLOAD PUSH2 0xD32 SWAP2 SWAP1 PUSH2 0x3630 JUMP JUMPDEST PUSH1 0x8 DUP2 SWAP1 SSTORE POP PUSH1 0x0 PUSH1 0x3 PUSH1 0x1 PUSH2 0x100 EXP DUP2 SLOAD DUP2 PUSH1 0xFF MUL NOT AND SWAP1 DUP4 ISZERO ISZERO MUL OR SWAP1 SSTORE POP CALLER PUSH1 0x6 PUSH1 0x0 PUSH2 0x100 EXP DUP2 SLOAD DUP2 PUSH20 0xFFFFFFFFFFFFFFFFFFFFFFFFFFFFFFFFFFFFFFFF MUL NOT AND SWAP1 DUP4 PUSH20 0xFFFFFFFFFFFFFFFFFFFFFFFFFFFFFFFFFFFFFFFF AND MUL OR SWAP1 SSTORE POP PUSH1 0x1 PUSH1 0x3 PUSH1 0x0 PUSH2 0x100 EXP DUP2 SLOAD DUP2 PUSH1 0xFF MUL NOT AND SWAP1 DUP4 ISZERO ISZERO MUL OR SWAP1 SSTORE POP PUSH1 0x7 SLOAD PUSH1 0x8 SLOAD SUB PUSH2 0xDDA JUMPI PUSH1 0x1 PUSH1 0x3 PUSH1 0x2 PUSH2 0x100 EXP DUP2 SLOAD DUP2 PUSH1 0xFF MUL NOT AND SWAP1 DUP4 ISZERO ISZERO MUL OR SWAP1 SSTORE POP PUSH2 0xE0C JUMP JUMPDEST PUSH1 0x0 PUSH1 0x3 PUSH1 0x2 PUSH2 0x100 EXP DUP2 SLOAD DUP2 PUSH1 0xFF MUL NOT AND SWAP1 DUP4 ISZERO ISZERO MUL OR SWAP1 SSTORE POP PUSH1 0x7 SLOAD PUSH1 0x8 SLOAD PUSH2 0xE05 SWAP2 SWAP1 PUSH2 0x3722 JUMP JUMPDEST PUSH1 0x9 DUP2 SWAP1 SSTORE POP JUMPDEST JUMPDEST PUSH2 0x107D JUMP JUMPDEST PUSH1 0x1 ISZERO ISZERO PUSH1 0x3 PUSH1 0x0 SWAP1 SLOAD SWAP1 PUSH2 0x100 EXP SWAP1 DIV PUSH1 0xFF AND ISZERO ISZERO SUB PUSH2 0xF25 JUMPI PUSH1 0xA SLOAD CALLER PUSH20 0xFFFFFFFFFFFFFFFFFFFFFFFFFFFFFFFFFFFFFFFF AND BALANCE LT ISZERO PUSH2 0xE89 JUMPI PUSH1 0x40 MLOAD PUSH32 0x8C379A000000000000000000000000000000000000000000000000000000000 DUP2 MSTORE PUSH1 0x4 ADD PUSH2 0xE80 SWAP1 PUSH2 0x3610 JUMP JUMPDEST PUSH1 0x40 MLOAD DUP1 SWAP2 SUB SWAP1 REVERT JUMPDEST PUSH1 0xA SLOAD CALLVALUE PUSH1 0x7 SLOAD PUSH2 0xE9A SWAP2 SWAP1 PUSH2 0x3630 JUMP JUMPDEST GT ISZERO PUSH2 0xEDB JUMPI PUSH1 0x40 MLOAD PUSH32 0x8C379A000000000000000000000000000000000000000000000000000000000 DUP2 MSTORE PUSH1 0x4 ADD PUSH2 0xED2 SWAP1 PUSH2 0x36B0 JUMP JUMPDEST PUSH1 0x40 MLOAD DUP1 SWAP2 SUB SWAP1 REVERT JUMPDEST PUSH1 0x4 SLOAD PUSH1 0x0 SLOAD PUSH2 0xEEB SWAP2 SWAP1 PUSH2 0x3630 JUMP JUMPDEST PUSH1 0x0 DUP2 SWAP1 SSTORE POP PUSH1 0x0 PUSH1 0x3 PUSH1 0x0 PUSH2 0x100 EXP DUP2 SLOAD DUP2 PUSH1 0xFF MUL NOT AND SWAP1 DUP4 ISZERO ISZERO MUL OR SWAP1 SSTORE POP CALLVALUE PUSH1 0x7 SLOAD PUSH2 0xF1A SWAP2 SWAP1 PUSH2 0x3630 JUMP JUMPDEST PUSH1 0x7 DUP2 SWAP1 SSTORE POP PUSH2 0x107C JUMP JUMPDEST PUSH1 0xA SLOAD CALLER PUSH20 0xFFFFFFFFFFFFFFFFFFFFFFFFFFFFFFFFFFFFFFFF AND BALANCE LT ISZERO PUSH2 0xF81 JUMPI PUSH1 0x40 MLOAD PUSH32 0x8C379A000000000000000000000000000000000000000000000000000000000 DUP2 MSTORE PUSH1 0x4 ADD PUSH2 0xF78 SWAP1 PUSH2 0x3610 JUMP JUMPDEST PUSH1 0x40 MLOAD DUP1 SWAP2 SUB SWAP1 REVERT JUMPDEST PUSH1 0xA SLOAD CALLVALUE PUSH1 0x8 SLOAD PUSH2 0xF92 SWAP2 SWAP1 PUSH2 0x3630 JUMP JUMPDEST GT ISZERO PUSH2 0xFD3 JUMPI PUSH1 0x40 MLOAD PUSH32 0x8C379A000000000000000000000000000000000000000000000000000000000 DUP2 MSTORE PUSH1 0x4 ADD PUSH2 0xFCA SWAP1 PUSH2 0x36B0 JUMP JUMPDEST PUSH1 0x40 MLOAD DUP1 SWAP2 SUB SWAP1 REVERT JUMPDEST PUSH1 0x7 SLOAD CALLVALUE PUSH1 0x8 SLOAD PUSH2 0xFE4 SWAP2 SWAP1 PUSH2 0x3630 JUMP JUMPDEST LT ISZERO PUSH2 0xFEF JUMPI PUSH1 0x0 DUP1 REVERT JUMPDEST PUSH1 0x4 SLOAD PUSH1 0x1 SLOAD PUSH2 0xFFF SWAP2 SWAP1 PUSH2 0x3630 JUMP JUMPDEST PUSH1 0x1 DUP2 SWAP1 SSTORE POP PUSH1 0x1 PUSH1 0x3 PUSH1 0x0 PUSH2 0x100 EXP DUP2 SLOAD DUP2 PUSH1 0xFF MUL NOT AND SWAP1 DUP4 ISZERO ISZERO MUL OR SWAP1 SSTORE POP CALLVALUE PUSH1 0x8 SLOAD PUSH2 0x102E SWAP2 SWAP1 PUSH2 0x3630 JUMP JUMPDEST PUSH1 0x8 DUP2 SWAP1 SSTORE POP PUSH1 0x7 SLOAD PUSH1 0x8 SLOAD SUB PUSH2 0x105F JUMPI PUSH1 0x1 PUSH1 0x3 PUSH1 0x2 PUSH2 0x100 EXP DUP2 SLOAD DUP2 PUSH1 0xFF MUL NOT AND SWAP1 DUP4 ISZERO ISZERO MUL OR SWAP1 SSTORE POP PUSH2 0x107B JUMP JUMPDEST PUSH1 0x0 PUSH1 0x3 PUSH1 0x2 PUSH2 0x100 EXP DUP2 SLOAD DUP2 PUSH1 0xFF MUL NOT AND SWAP1 DUP4 ISZERO ISZERO MUL OR SWAP1 SSTORE POP JUMPDEST JUMPDEST JUMPDEST JUMPDEST PUSH2 0x1F1B JUMP JUMPDEST PUSH1 0x1 ISZERO ISZERO PUSH1 0x3 PUSH1 0x0 SWAP1 SLOAD SWAP1 PUSH2 0x100 EXP SWAP1 DIV PUSH1 0xFF AND ISZERO ISZERO SUB PUSH2 0x17DE JUMPI PUSH1 0x5 PUSH1 0x1 SWAP1 SLOAD SWAP1 PUSH2 0x100 EXP SWAP1 DIV PUSH20 0xFFFFFFFFFFFFFFFFFFFFFFFFFFFFFFFFFFFFFFFF AND PUSH20 0xFFFFFFFFFFFFFFFFFFFFFFFFFFFFFFFFFFFFFFFF AND CALLER PUSH20 0xFFFFFFFFFFFFFFFFFFFFFFFFFFFFFFFFFFFFFFFF AND EQ PUSH2 0x112E JUMPI PUSH1 0x40 MLOAD PUSH32 0x8C379A000000000000000000000000000000000000000000000000000000000 DUP2 MSTORE PUSH1 0x4 ADD PUSH2 0x1125 SWAP1 PUSH2 0x37A2 JUMP JUMPDEST PUSH1 0x40 MLOAD DUP1 SWAP2 SUB SWAP1 REVERT JUMPDEST PUSH1 0x1 ISZERO ISZERO PUSH1 0x3 PUSH1 0x2 SWAP1 SLOAD SWAP1 PUSH2 0x100 EXP SWAP1 DIV PUSH1 0xFF AND ISZERO ISZERO EQ PUSH2 0x1184 JUMPI PUSH1 0x40 MLOAD PUSH32 0x8C379A000000000000000000000000000000000000000000000000000000000 DUP2 MSTORE PUSH1 0x4 ADD PUSH2 0x117B SWAP1 PUSH2 0x3507 JUMP JUMPDEST PUSH1 0x40 MLOAD DUP1 SWAP2 SUB SWAP1 REVERT JUMPDEST PUSH2 0x118C PUSH2 0x309B JUMP JUMPDEST PUSH1 0x0 PUSH1 0x5 PUSH1 0x0 PUSH2 0x100 EXP DUP2 SLOAD DUP2 PUSH1 0xFF MUL NOT AND SWAP1 DUP4 ISZERO ISZERO MUL OR SWAP1 SSTORE POP PUSH1 0x7 PUSH1 0x0 DUP2 SLOAD DUP1 SWAP3 SWAP2 SWAP1 PUSH2 0x11BA SWAP1 PUSH2 0x3556 JUMP JUMPDEST SWAP2 SWAP1 POP SSTORE PUSH1 0x7 DUP2 SWAP1 SSTORE POP PUSH1 0x1 ISZERO ISZERO PUSH1 0x3 PUSH1 0x1 SWAP1 SLOAD SWAP1 PUSH2 0x100 EXP SWAP1 DIV PUSH1 0xFF AND ISZERO ISZERO SUB PUSH2 0x156E JUMPI PUSH1 0x1 ISZERO ISZERO PUSH1 0x3 PUSH1 0x0 SWAP1 SLOAD SWAP1 PUSH2 0x100 EXP SWAP1 DIV PUSH1 0xFF AND ISZERO ISZERO SUB PUSH2 0x13A0 JUMPI PUSH1 0xA SLOAD CALLER PUSH20 0xFFFFFFFFFFFFFFFFFFFFFFFFFFFFFFFFFFFFFFFF AND BALANCE LT ISZERO PUSH2 0x1256 JUMPI PUSH1 0x40 MLOAD PUSH32 0x8C379A000000000000000000000000000000000000000000000000000000000 DUP2 MSTORE PUSH1 0x4 ADD PUSH2 0x124D SWAP1 PUSH2 0x3610 JUMP JUMPDEST PUSH1 0x40 MLOAD DUP1 SWAP2 SUB SWAP1 REVERT JUMPDEST PUSH1 0xA SLOAD CALLVALUE PUSH1 0x7 SLOAD PUSH2 0x1267 SWAP2 SWAP1 PUSH2 0x3630 JUMP JUMPDEST GT ISZERO PUSH2 0x12A8 JUMPI PUSH1 0x40 MLOAD PUSH32 0x8C379A000000000000000000000000000000000000000000000000000000000 DUP2 MSTORE PUSH1 0x4 ADD PUSH2 0x129F SWAP1 PUSH2 0x36B0 JUMP JUMPDEST PUSH1 0x40 MLOAD DUP1 SWAP2 SUB SWAP1 REVERT JUMPDEST PUSH1 0x4 SLOAD PUSH1 0x0 SLOAD PUSH2 0x12B8 SWAP2 SWAP1 PUSH2 0x3630 JUMP JUMPDEST PUSH1 0x0 DUP2 SWAP1 SSTORE POP CALLVALUE PUSH1 0x7 SLOAD PUSH2 0x12CC SWAP2 SWAP1 PUSH2 0x3630 JUMP JUMPDEST PUSH1 0x7 DUP2 SWAP1 SSTORE POP CALLER PUSH1 0x5 PUSH1 0x1 PUSH2 0x100 EXP DUP2 SLOAD DUP2 PUSH20 0xFFFFFFFFFFFFFFFFFFFFFFFFFFFFFFFFFFFFFFFF MUL NOT AND SWAP1 DUP4 PUSH20 0xFFFFFFFFFFFFFFFFFFFFFFFFFFFFFFFFFFFFFFFF AND MUL OR SWAP1 SSTORE POP CALLER PUSH20 0xFFFFFFFFFFFFFFFFFFFFFFFFFFFFFFFFFFFFFFFF AND PUSH32 0xDF9A51129930649214DF58F542322C245372C6F2FA6FC3C9B40D927C597CD230 CALLVALUE TIMESTAMP PUSH1 0x40 MLOAD PUSH2 0x135B SWAP3 SWAP2 SWAP1 PUSH2 0x36D0 JUMP JUMPDEST PUSH1 0x40 MLOAD DUP1 SWAP2 SUB SWAP1 LOG2 PUSH1 0x0 PUSH1 0x3 PUSH1 0x0 PUSH2 0x100 EXP DUP2 SLOAD DUP2 PUSH1 0xFF MUL NOT AND SWAP1 DUP4 ISZERO ISZERO MUL OR SWAP1 SSTORE POP PUSH1 0x7 PUSH1 0x0 DUP2 SLOAD DUP1 SWAP3 SWAP2 SWAP1 PUSH2 0x1391 SWAP1 PUSH2 0x36F9 JUMP JUMPDEST SWAP2 SWAP1 POP SSTORE PUSH1 0x7 DUP2 SWAP1 SSTORE POP PUSH2 0x1569 JUMP JUMPDEST PUSH1 0x7 SLOAD CALLVALUE PUSH1 0x8 SLOAD PUSH2 0x13B1 SWAP2 SWAP1 PUSH2 0x3630 JUMP JUMPDEST LT ISZERO PUSH2 0x13BC JUMPI PUSH1 0x0 DUP1 REVERT JUMPDEST PUSH1 0xA SLOAD CALLER PUSH20 0xFFFFFFFFFFFFFFFFFFFFFFFFFFFFFFFFFFFFFFFF AND BALANCE LT ISZERO PUSH2 0x1418 JUMPI PUSH1 0x40 MLOAD PUSH32 0x8C379A000000000000000000000000000000000000000000000000000000000 DUP2 MSTORE PUSH1 0x4 ADD PUSH2 0x140F SWAP1 PUSH2 0x3610 JUMP JUMPDEST PUSH1 0x40 MLOAD DUP1 SWAP2 SUB SWAP1 REVERT JUMPDEST PUSH1 0xA SLOAD CALLVALUE PUSH1 0x8 SLOAD PUSH2 0x1429 SWAP2 SWAP1 PUSH2 0x3630 JUMP JUMPDEST GT ISZERO PUSH2 0x146A JUMPI PUSH1 0x40 MLOAD PUSH32 0x8C379A000000000000000000000000000000000000000000000000000000000 DUP2 MSTORE PUSH1 0x4 ADD PUSH2 0x1461 SWAP1 PUSH2 0x36B0 JUMP JUMPDEST PUSH1 0x40 MLOAD DUP1 SWAP2 SUB SWAP1 REVERT JUMPDEST PUSH1 0x4 SLOAD PUSH1 0x1 SLOAD PUSH2 0x147A SWAP2 SWAP1 PUSH2 0x3630 JUMP JUMPDEST PUSH1 0x1 DUP2 SWAP1 SSTORE POP CALLVALUE PUSH1 0x8 SLOAD PUSH2 0x148E SWAP2 SWAP1 PUSH2 0x3630 JUMP JUMPDEST PUSH1 0x8 DUP2 SWAP1 SSTORE POP PUSH1 0x0 PUSH1 0x3 PUSH1 0x1 PUSH2 0x100 EXP DUP2 SLOAD DUP2 PUSH1 0xFF MUL NOT AND SWAP1 DUP4 ISZERO ISZERO MUL OR SWAP1 SSTORE POP CALLER PUSH1 0x6 PUSH1 0x0 PUSH2 0x100 EXP DUP2 SLOAD DUP2 PUSH20 0xFFFFFFFFFFFFFFFFFFFFFFFFFFFFFFFFFFFFFFFF MUL NOT AND SWAP1 DUP4 PUSH20 0xFFFFFFFFFFFFFFFFFFFFFFFFFFFFFFFFFFFFFFFF AND MUL OR SWAP1 SSTORE POP PUSH1 0x1 PUSH1 0x3 PUSH1 0x0 PUSH2 0x100 EXP DUP2 SLOAD DUP2 PUSH1 0xFF MUL NOT AND SWAP1 DUP4 ISZERO ISZERO MUL OR SWAP1 SSTORE POP PUSH1 0x7 SLOAD PUSH1 0x8 SLOAD SUB PUSH2 0x1536 JUMPI PUSH1 0x1 PUSH1 0x3 PUSH1 0x2 PUSH2 0x100 EXP DUP2 SLOAD DUP2 PUSH1 0xFF MUL NOT AND SWAP1 DUP4 ISZERO ISZERO MUL OR SWAP1 SSTORE POP PUSH2 0x1568 JUMP JUMPDEST PUSH1 0x0 PUSH1 0x3 PUSH1 0x2 PUSH2 0x100 EXP DUP2 SLOAD DUP2 PUSH1 0xFF MUL NOT AND SWAP1 DUP4 ISZERO ISZERO MUL OR SWAP1 SSTORE POP PUSH1 0x7 SLOAD PUSH1 0x8 SLOAD PUSH2 0x1561 SWAP2 SWAP1 PUSH2 0x3722 JUMP JUMPDEST PUSH1 0x9 DUP2 SWAP1 SSTORE POP JUMPDEST JUMPDEST PUSH2 0x17D9 JUMP JUMPDEST PUSH1 0x1 ISZERO ISZERO PUSH1 0x3 PUSH1 0x0 SWAP1 SLOAD SWAP1 PUSH2 0x100 EXP SWAP1 DIV PUSH1 0xFF AND ISZERO ISZERO SUB PUSH2 0x1681 JUMPI PUSH1 0xA SLOAD CALLER PUSH20 0xFFFFFFFFFFFFFFFFFFFFFFFFFFFFFFFFFFFFFFFF AND BALANCE LT ISZERO PUSH2 0x15E5 JUMPI PUSH1 0x40 MLOAD PUSH32 0x8C379A000000000000000000000000000000000000000000000000000000000 DUP2 MSTORE PUSH1 0x4 ADD PUSH2 0x15DC SWAP1 PUSH2 0x3610 JUMP JUMPDEST PUSH1 0x40 MLOAD DUP1 SWAP2 SUB SWAP1 REVERT JUMPDEST PUSH1 0xA SLOAD CALLVALUE PUSH1 0x7 SLOAD PUSH2 0x15F6 SWAP2 SWAP1 PUSH2 0x3630 JUMP JUMPDEST GT ISZERO PUSH2 0x1637 JUMPI PUSH1 0x40 MLOAD PUSH32 0x8C379A000000000000000000000000000000000000000000000000000000000 DUP2 MSTORE PUSH1 0x4 ADD PUSH2 0x162E SWAP1 PUSH2 0x36B0 JUMP JUMPDEST PUSH1 0x40 MLOAD DUP1 SWAP2 SUB SWAP1 REVERT JUMPDEST PUSH1 0x4 SLOAD PUSH1 0x0 SLOAD PUSH2 0x1647 SWAP2 SWAP1 PUSH2 0x3630 JUMP JUMPDEST PUSH1 0x0 DUP2 SWAP1 SSTORE POP PUSH1 0x0 PUSH1 0x3 PUSH1 0x0 PUSH2 0x100 EXP DUP2 SLOAD DUP2 PUSH1 0xFF MUL NOT AND SWAP1 DUP4 ISZERO ISZERO MUL OR SWAP1 SSTORE POP CALLVALUE PUSH1 0x7 SLOAD PUSH2 0x1676 SWAP2 SWAP1 PUSH2 0x3630 JUMP JUMPDEST PUSH1 0x7 DUP2 SWAP1 SSTORE POP PUSH2 0x17D8 JUMP JUMPDEST PUSH1 0xA SLOAD CALLER PUSH20 0xFFFFFFFFFFFFFFFFFFFFFFFFFFFFFFFFFFFFFFFF AND BALANCE LT ISZERO PUSH2 0x16DD JUMPI PUSH1 0x40 MLOAD PUSH32 0x8C379A000000000000000000000000000000000000000000000000000000000 DUP2 MSTORE PUSH1 0x4 ADD PUSH2 0x16D4 SWAP1 PUSH2 0x3610 JUMP JUMPDEST PUSH1 0x40 MLOAD DUP1 SWAP2 SUB SWAP1 REVERT JUMPDEST PUSH1 0xA SLOAD CALLVALUE PUSH1 0x8 SLOAD PUSH2 0x16EE SWAP2 SWAP1 PUSH2 0x3630 JUMP JUMPDEST GT ISZERO PUSH2 0x172F JUMPI PUSH1 0x40 MLOAD PUSH32 0x8C379A000000000000000000000000000000000000000000000000000000000 DUP2 MSTORE PUSH1 0x4 ADD PUSH2 0x1726 SWAP1 PUSH2 0x36B0 JUMP JUMPDEST PUSH1 0x40 MLOAD DUP1 SWAP2 SUB SWAP1 REVERT JUMPDEST PUSH1 0x7 SLOAD CALLVALUE PUSH1 0x8 SLOAD PUSH2 0x1740 SWAP2 SWAP1 PUSH2 0x3630 JUMP JUMPDEST LT ISZERO PUSH2 0x174B JUMPI PUSH1 0x0 DUP1 REVERT JUMPDEST PUSH1 0x4 SLOAD PUSH1 0x1 SLOAD PUSH2 0x175B SWAP2 SWAP1 PUSH2 0x3630 JUMP JUMPDEST PUSH1 0x1 DUP2 SWAP1 SSTORE POP PUSH1 0x1 PUSH1 0x3 PUSH1 0x0 PUSH2 0x100 EXP DUP2 SLOAD DUP2 PUSH1 0xFF MUL NOT AND SWAP1 DUP4 ISZERO ISZERO MUL OR SWAP1 SSTORE POP CALLVALUE PUSH1 0x8 SLOAD PUSH2 0x178A SWAP2 SWAP1 PUSH2 0x3630 JUMP JUMPDEST PUSH1 0x8 DUP2 SWAP1 SSTORE POP PUSH1 0x7 SLOAD PUSH1 0x8 SLOAD SUB PUSH2 0x17BB JUMPI PUSH1 0x1 PUSH1 0x3 PUSH1 0x2 PUSH2 0x100 EXP DUP2 SLOAD DUP2 PUSH1 0xFF MUL NOT AND SWAP1 DUP4 ISZERO ISZERO MUL OR SWAP1 SSTORE POP PUSH2 0x17D7 JUMP JUMPDEST PUSH1 0x0 PUSH1 0x3 PUSH1 0x2 PUSH2 0x100 EXP DUP2 SLOAD DUP2 PUSH1 0xFF MUL NOT AND SWAP1 DUP4 ISZERO ISZERO MUL OR SWAP1 SSTORE POP JUMPDEST JUMPDEST JUMPDEST PUSH2 0x1F1A JUMP JUMPDEST PUSH1 0x6 PUSH1 0x0 SWAP1 SLOAD SWAP1 PUSH2 0x100 EXP SWAP1 DIV PUSH20 0xFFFFFFFFFFFFFFFFFFFFFFFFFFFFFFFFFFFFFFFF AND PUSH20 0xFFFFFFFFFFFFFFFFFFFFFFFFFFFFFFFFFFFFFFFF AND CALLER PUSH20 0xFFFFFFFFFFFFFFFFFFFFFFFFFFFFFFFFFFFFFFFF AND EQ PUSH2 0x186E JUMPI PUSH1 0x40 MLOAD PUSH32 0x8C379A000000000000000000000000000000000000000000000000000000000 DUP2 MSTORE PUSH1 0x4 ADD PUSH2 0x1865 SWAP1 PUSH2 0x37A2 JUMP JUMPDEST PUSH1 0x40 MLOAD DUP1 SWAP2 SUB SWAP1 REVERT JUMPDEST PUSH1 0x1 ISZERO ISZERO PUSH1 0x3 PUSH1 0x2 SWAP1 SLOAD SWAP1 PUSH2 0x100 EXP SWAP1 DIV PUSH1 0xFF AND ISZERO ISZERO EQ PUSH2 0x18C4 JUMPI PUSH1 0x40 MLOAD PUSH32 0x8C379A000000000000000000000000000000000000000000000000000000000 DUP2 MSTORE PUSH1 0x4 ADD PUSH2 0x18BB SWAP1 PUSH2 0x3507 JUMP JUMPDEST PUSH1 0x40 MLOAD DUP1 SWAP2 SUB SWAP1 REVERT JUMPDEST PUSH2 0x18CC PUSH2 0x309B JUMP JUMPDEST PUSH1 0x0 PUSH1 0x5 PUSH1 0x0 PUSH2 0x100 EXP DUP2 SLOAD DUP2 PUSH1 0xFF MUL NOT AND SWAP1 DUP4 ISZERO ISZERO MUL OR SWAP1 SSTORE POP PUSH1 0x7 PUSH1 0x0 DUP2 SLOAD DUP1 SWAP3 SWAP2 SWAP1 PUSH2 0x18FA SWAP1 PUSH2 0x3556 JUMP JUMPDEST SWAP2 SWAP1 POP SSTORE PUSH1 0x7 DUP2 SWAP1 SSTORE POP PUSH1 0x1 ISZERO ISZERO PUSH1 0x3 PUSH1 0x1 SWAP1 SLOAD SWAP1 PUSH2 0x100 EXP SWAP1 DIV PUSH1 0xFF AND ISZERO ISZERO SUB PUSH2 0x1CAE JUMPI PUSH1 0x1 ISZERO ISZERO PUSH1 0x3 PUSH1 0x0 SWAP1 SLOAD SWAP1 PUSH2 0x100 EXP SWAP1 DIV PUSH1 0xFF AND ISZERO ISZERO SUB PUSH2 0x1AE0 JUMPI PUSH1 0xA SLOAD CALLER PUSH20 0xFFFFFFFFFFFFFFFFFFFFFFFFFFFFFFFFFFFFFFFF AND BALANCE LT ISZERO PUSH2 0x1996 JUMPI PUSH1 0x40 MLOAD PUSH32 0x8C379A000000000000000000000000000000000000000000000000000000000 DUP2 MSTORE PUSH1 0x4 ADD PUSH2 0x198D SWAP1 PUSH2 0x3610 JUMP JUMPDEST PUSH1 0x40 MLOAD DUP1 SWAP2 SUB SWAP1 REVERT JUMPDEST PUSH1 0xA SLOAD CALLVALUE PUSH1 0x7 SLOAD PUSH2 0x19A7 SWAP2 SWAP1 PUSH2 0x3630 JUMP JUMPDEST GT ISZERO PUSH2 0x19E8 JUMPI PUSH1 0x40 MLOAD PUSH32 0x8C379A000000000000000000000000000000000000000000000000000000000 DUP2 MSTORE PUSH1 0x4 ADD PUSH2 0x19DF SWAP1 PUSH2 0x36B0 JUMP JUMPDEST PUSH1 0x40 MLOAD DUP1 SWAP2 SUB SWAP1 REVERT JUMPDEST PUSH1 0x4 SLOAD PUSH1 0x0 SLOAD PUSH2 0x19F8 SWAP2 SWAP1 PUSH2 0x3630 JUMP JUMPDEST PUSH1 0x0 DUP2 SWAP1 SSTORE POP CALLVALUE PUSH1 0x7 SLOAD PUSH2 0x1A0C SWAP2 SWAP1 PUSH2 0x3630 JUMP JUMPDEST PUSH1 0x7 DUP2 SWAP1 SSTORE POP CALLER PUSH1 0x5 PUSH1 0x1 PUSH2 0x100 EXP DUP2 SLOAD DUP2 PUSH20 0xFFFFFFFFFFFFFFFFFFFFFFFFFFFFFFFFFFFFFFFF MUL NOT AND SWAP1 DUP4 PUSH20 0xFFFFFFFFFFFFFFFFFFFFFFFFFFFFFFFFFFFFFFFF AND MUL OR SWAP1 SSTORE POP CALLER PUSH20 0xFFFFFFFFFFFFFFFFFFFFFFFFFFFFFFFFFFFFFFFF AND PUSH32 0xDF9A51129930649214DF58F542322C245372C6F2FA6FC3C9B40D927C597CD230 CALLVALUE TIMESTAMP PUSH1 0x40 MLOAD PUSH2 0x1A9B SWAP3 SWAP2 SWAP1 PUSH2 0x36D0 JUMP JUMPDEST PUSH1 0x40 MLOAD DUP1 SWAP2 SUB SWAP1 LOG2 PUSH1 0x0 PUSH1 0x3 PUSH1 0x0 PUSH2 0x100 EXP DUP2 SLOAD DUP2 PUSH1 0xFF MUL NOT AND SWAP1 DUP4 ISZERO ISZERO MUL OR SWAP1 SSTORE POP PUSH1 0x7 PUSH1 0x0 DUP2 SLOAD DUP1 SWAP3 SWAP2 SWAP1 PUSH2 0x1AD1 SWAP1 PUSH2 0x36F9 JUMP JUMPDEST SWAP2 SWAP1 POP SSTORE PUSH1 0x7 DUP2 SWAP1 SSTORE POP PUSH2 0x1CA9 JUMP JUMPDEST PUSH1 0x7 SLOAD CALLVALUE PUSH1 0x8 SLOAD PUSH2 0x1AF1 SWAP2 SWAP1 PUSH2 0x3630 JUMP JUMPDEST LT ISZERO PUSH2 0x1AFC JUMPI PUSH1 0x0 DUP1 REVERT JUMPDEST PUSH1 0xA SLOAD CALLER PUSH20 0xFFFFFFFFFFFFFFFFFFFFFFFFFFFFFFFFFFFFFFFF AND BALANCE LT ISZERO PUSH2 0x1B58 JUMPI PUSH1 0x40 MLOAD PUSH32 0x8C379A000000000000000000000000000000000000000000000000000000000 DUP2 MSTORE PUSH1 0x4 ADD PUSH2 0x1B4F SWAP1 PUSH2 0x3610 JUMP JUMPDEST PUSH1 0x40 MLOAD DUP1 SWAP2 SUB SWAP1 REVERT JUMPDEST PUSH1 0xA SLOAD CALLVALUE PUSH1 0x8 SLOAD PUSH2 0x1B69 SWAP2 SWAP1 PUSH2 0x3630 JUMP JUMPDEST GT ISZERO PUSH2 0x1BAA JUMPI PUSH1 0x40 MLOAD PUSH32 0x8C379A000000000000000000000000000000000000000000000000000000000 DUP2 MSTORE PUSH1 0x4 ADD PUSH2 0x1BA1 SWAP1 PUSH2 0x36B0 JUMP JUMPDEST PUSH1 0x40 MLOAD DUP1 SWAP2 SUB SWAP1 REVERT JUMPDEST PUSH1 0x4 SLOAD PUSH1 0x1 SLOAD PUSH2 0x1BBA SWAP2 SWAP1 PUSH2 0x3630 JUMP JUMPDEST PUSH1 0x1 DUP2 SWAP1 SSTORE POP CALLVALUE PUSH1 0x8 SLOAD PUSH2 0x1BCE SWAP2 SWAP1 PUSH2 0x3630 JUMP JUMPDEST PUSH1 0x8 DUP2 SWAP1 SSTORE POP PUSH1 0x0 PUSH1 0x3 PUSH1 0x1 PUSH2 0x100 EXP DUP2 SLOAD DUP2 PUSH1 0xFF MUL NOT AND SWAP1 DUP4 ISZERO ISZERO MUL OR SWAP1 SSTORE POP CALLER PUSH1 0x6 PUSH1 0x0 PUSH2 0x100 EXP DUP2 SLOAD DUP2 PUSH20 0xFFFFFFFFFFFFFFFFFFFFFFFFFFFFFFFFFFFFFFFF MUL NOT AND SWAP1 DUP4 PUSH20 0xFFFFFFFFFFFFFFFFFFFFFFFFFFFFFFFFFFFFFFFF AND MUL OR SWAP1 SSTORE POP PUSH1 0x1 PUSH1 0x3 PUSH1 0x0 PUSH2 0x100 EXP DUP2 SLOAD DUP2 PUSH1 0xFF MUL NOT AND SWAP1 DUP4 ISZERO ISZERO MUL OR SWAP1 SSTORE POP PUSH1 0x7 SLOAD PUSH1 0x8 SLOAD SUB PUSH2 0x1C76 JUMPI PUSH1 0x1 PUSH1 0x3 PUSH1 0x2 PUSH2 0x100 EXP DUP2 SLOAD DUP2 PUSH1 0xFF MUL NOT AND SWAP1 DUP4 ISZERO ISZERO MUL OR SWAP1 SSTORE POP PUSH2 0x1CA8 JUMP JUMPDEST PUSH1 0x0 PUSH1 0x3 PUSH1 0x2 PUSH2 0x100 EXP DUP2 SLOAD DUP2 PUSH1 0xFF MUL NOT AND SWAP1 DUP4 ISZERO ISZERO MUL OR SWAP1 SSTORE POP PUSH1 0x7 SLOAD PUSH1 0x8 SLOAD PUSH2 0x1CA1 SWAP2 SWAP1 PUSH2 0x3722 JUMP JUMPDEST PUSH1 0x9 DUP2 SWAP1 SSTORE POP JUMPDEST JUMPDEST PUSH2 0x1F19 JUMP JUMPDEST PUSH1 0x1 ISZERO ISZERO PUSH1 0x3 PUSH1 0x0 SWAP1 SLOAD SWAP1 PUSH2 0x100 EXP SWAP1 DIV PUSH1 0xFF AND ISZERO ISZERO SUB PUSH2 0x1DC1 JUMPI PUSH1 0xA SLOAD CALLER PUSH20 0xFFFFFFFFFFFFFFFFFFFFFFFFFFFFFFFFFFFFFFFF AND BALANCE LT ISZERO PUSH2 0x1D25 JUMPI PUSH1 0x40 MLOAD PUSH32 0x8C379A000000000000000000000000000000000000000000000000000000000 DUP2 MSTORE PUSH1 0x4 ADD PUSH2 0x1D1C SWAP1 PUSH2 0x3610 JUMP JUMPDEST PUSH1 0x40 MLOAD DUP1 SWAP2 SUB SWAP1 REVERT JUMPDEST PUSH1 0xA SLOAD CALLVALUE PUSH1 0x7 SLOAD PUSH2 0x1D36 SWAP2 SWAP1 PUSH2 0x3630 JUMP JUMPDEST GT ISZERO PUSH2 0x1D77 JUMPI PUSH1 0x40 MLOAD PUSH32 0x8C379A000000000000000000000000000000000000000000000000000000000 DUP2 MSTORE PUSH1 0x4 ADD PUSH2 0x1D6E SWAP1 PUSH2 0x36B0 JUMP JUMPDEST PUSH1 0x40 MLOAD DUP1 SWAP2 SUB SWAP1 REVERT JUMPDEST PUSH1 0x4 SLOAD PUSH1 0x0 SLOAD PUSH2 0x1D87 SWAP2 SWAP1 PUSH2 0x3630 JUMP JUMPDEST PUSH1 0x0 DUP2 SWAP1 SSTORE POP PUSH1 0x0 PUSH1 0x3 PUSH1 0x0 PUSH2 0x100 EXP DUP2 SLOAD DUP2 PUSH1 0xFF MUL NOT AND SWAP1 DUP4 ISZERO ISZERO MUL OR SWAP1 SSTORE POP CALLVALUE PUSH1 0x7 SLOAD PUSH2 0x1DB6 SWAP2 SWAP1 PUSH2 0x3630 JUMP JUMPDEST PUSH1 0x7 DUP2 SWAP1 SSTORE POP PUSH2 0x1F18 JUMP JUMPDEST PUSH1 0xA SLOAD CALLER PUSH20 0xFFFFFFFFFFFFFFFFFFFFFFFFFFFFFFFFFFFFFFFF AND BALANCE LT ISZERO PUSH2 0x1E1D JUMPI PUSH1 0x40 MLOAD PUSH32 0x8C379A000000000000000000000000000000000000000000000000000000000 DUP2 MSTORE PUSH1 0x4 ADD PUSH2 0x1E14 SWAP1 PUSH2 0x3610 JUMP JUMPDEST PUSH1 0x40 MLOAD DUP1 SWAP2 SUB SWAP1 REVERT JUMPDEST PUSH1 0xA SLOAD CALLVALUE PUSH1 0x8 SLOAD PUSH2 0x1E2E SWAP2 SWAP1 PUSH2 0x3630 JUMP JUMPDEST GT ISZERO PUSH2 0x1E6F JUMPI PUSH1 0x40 MLOAD PUSH32 0x8C379A000000000000000000000000000000000000000000000000000000000 DUP2 MSTORE PUSH1 0x4 ADD PUSH2 0x1E66 SWAP1 PUSH2 0x36B0 JUMP JUMPDEST PUSH1 0x40 MLOAD DUP1 SWAP2 SUB SWAP1 REVERT JUMPDEST PUSH1 0x7 SLOAD CALLVALUE PUSH1 0x8 SLOAD PUSH2 0x1E80 SWAP2 SWAP1 PUSH2 0x3630 JUMP JUMPDEST LT ISZERO PUSH2 0x1E8B JUMPI PUSH1 0x0 DUP1 REVERT JUMPDEST PUSH1 0x4 SLOAD PUSH1 0x1 SLOAD PUSH2 0x1E9B SWAP2 SWAP1 PUSH2 0x3630 JUMP JUMPDEST PUSH1 0x1 DUP2 SWAP1 SSTORE POP PUSH1 0x1 PUSH1 0x3 PUSH1 0x0 PUSH2 0x100 EXP DUP2 SLOAD DUP2 PUSH1 0xFF MUL NOT AND SWAP1 DUP4 ISZERO ISZERO MUL OR SWAP1 SSTORE POP CALLVALUE PUSH1 0x8 SLOAD PUSH2 0x1ECA SWAP2 SWAP1 PUSH2 0x3630 JUMP JUMPDEST PUSH1 0x8 DUP2 SWAP1 SSTORE POP PUSH1 0x7 SLOAD PUSH1 0x8 SLOAD SUB PUSH2 0x1EFB JUMPI PUSH1 0x1 PUSH1 0x3 PUSH1 0x2 PUSH2 0x100 EXP DUP2 SLOAD DUP2 PUSH1 0xFF MUL NOT AND SWAP1 DUP4 ISZERO ISZERO MUL OR SWAP1 SSTORE POP PUSH2 0x1F17 JUMP JUMPDEST PUSH1 0x0 PUSH1 0x3 PUSH1 0x2 PUSH2 0x100 EXP DUP2 SLOAD DUP2 PUSH1 0xFF MUL NOT AND SWAP1 DUP4 ISZERO ISZERO MUL OR SWAP1 SSTORE POP JUMPDEST JUMPDEST JUMPDEST JUMPDEST JUMPDEST JUMP JUMPDEST PUSH1 0xA SLOAD DUP2 JUMP JUMPDEST PUSH1 0x0 PUSH1 0x5 PUSH1 0x1 SWAP1 SLOAD SWAP1 PUSH2 0x100 EXP SWAP1 DIV PUSH20 0xFFFFFFFFFFFFFFFFFFFFFFFFFFFFFFFFFFFFFFFF AND PUSH20 0xFFFFFFFFFFFFFFFFFFFFFFFFFFFFFFFFFFFFFFFF AND CALLER PUSH20 0xFFFFFFFFFFFFFFFFFFFFFFFFFFFFFFFFFFFFFFFF AND EQ PUSH2 0x1FB5 JUMPI PUSH1 0x40 MLOAD PUSH32 0x8C379A000000000000000000000000000000000000000000000000000000000 DUP2 MSTORE PUSH1 0x4 ADD PUSH2 0x1FAC SWAP1 PUSH2 0x380E JUMP JUMPDEST PUSH1 0x40 MLOAD DUP1 SWAP2 SUB SWAP1 REVERT JUMPDEST PUSH1 0x0 SLOAD SWAP1 POP SWAP1 JUMP JUMPDEST PUSH1 0x7 SLOAD DUP2 JUMP JUMPDEST PUSH1 0x9 SLOAD DUP2 JUMP JUMPDEST PUSH1 0x2 SLOAD DUP2 JUMP JUMPDEST PUSH1 0x1 ISZERO ISZERO PUSH1 0x3 PUSH1 0x2 SWAP1 SLOAD SWAP1 PUSH2 0x100 EXP SWAP1 DIV PUSH1 0xFF AND ISZERO ISZERO EQ PUSH2 0x2025 JUMPI PUSH1 0x40 MLOAD PUSH32 0x8C379A000000000000000000000000000000000000000000000000000000000 DUP2 MSTORE PUSH1 0x4 ADD PUSH2 0x201C SWAP1 PUSH2 0x387A JUMP JUMPDEST PUSH1 0x40 MLOAD DUP1 SWAP2 SUB SWAP1 REVERT JUMPDEST PUSH1 0x0 ISZERO ISZERO PUSH1 0x5 PUSH1 0x0 SWAP1 SLOAD SWAP1 PUSH2 0x100 EXP SWAP1 DIV PUSH1 0xFF AND ISZERO ISZERO SUB PUSH2 0x2166 JUMPI PUSH1 0x5 PUSH1 0x1 SWAP1 SLOAD SWAP1 PUSH2 0x100 EXP SWAP1 DIV PUSH20 0xFFFFFFFFFFFFFFFFFFFFFFFFFFFFFFFFFFFFFFFF AND PUSH20 0xFFFFFFFFFFFFFFFFFFFFFFFFFFFFFFFFFFFFFFFF AND CALLER PUSH20 0xFFFFFFFFFFFFFFFFFFFFFFFFFFFFFFFFFFFFFFFF AND SUB PUSH2 0x20B5 JUMPI PUSH1 0x1 PUSH1 0x5 PUSH1 0x0 PUSH2 0x100 EXP DUP2 SLOAD DUP2 PUSH1 0xFF MUL NOT AND SWAP1 DUP4 ISZERO ISZERO MUL OR SWAP1 SSTORE POP PUSH2 0x2161 JUMP JUMPDEST PUSH1 0x6 PUSH1 0x0 SWAP1 SLOAD SWAP1 PUSH2 0x100 EXP SWAP1 DIV PUSH20 0xFFFFFFFFFFFFFFFFFFFFFFFFFFFFFFFFFFFFFFFF AND PUSH20 0xFFFFFFFFFFFFFFFFFFFFFFFFFFFFFFFFFFFFFFFF AND CALLER PUSH20 0xFFFFFFFFFFFFFFFFFFFFFFFFFFFFFFFFFFFFFFFF AND EQ PUSH2 0x2145 JUMPI PUSH1 0x40 MLOAD PUSH32 0x8C379A000000000000000000000000000000000000000000000000000000000 DUP2 MSTORE PUSH1 0x4 ADD PUSH2 0x213C SWAP1 PUSH2 0x390C JUMP JUMPDEST PUSH1 0x40 MLOAD DUP1 SWAP2 SUB SWAP1 REVERT JUMPDEST PUSH1 0x1 PUSH1 0x5 PUSH1 0x0 PUSH2 0x100 EXP DUP2 SLOAD DUP2 PUSH1 0xFF MUL NOT AND SWAP1 DUP4 ISZERO ISZERO MUL OR SWAP1 SSTORE POP JUMPDEST PUSH2 0x2262 JUMP JUMPDEST PUSH1 0x5 PUSH1 0x1 SWAP1 SLOAD SWAP1 PUSH2 0x100 EXP SWAP1 DIV PUSH20 0xFFFFFFFFFFFFFFFFFFFFFFFFFFFFFFFFFFFFFFFF AND PUSH20 0xFFFFFFFFFFFFFFFFFFFFFFFFFFFFFFFFFFFFFFFF AND CALLER PUSH20 0xFFFFFFFFFFFFFFFFFFFFFFFFFFFFFFFFFFFFFFFF AND SUB PUSH2 0x21C8 JUMPI PUSH2 0x21C3 PUSH2 0x30F0 JUMP JUMPDEST PUSH2 0x2261 JUMP JUMPDEST PUSH1 0x6 PUSH1 0x0 SWAP1 SLOAD SWAP1 PUSH2 0x100 EXP SWAP1 DIV PUSH20 0xFFFFFFFFFFFFFFFFFFFFFFFFFFFFFFFFFFFFFFFF AND PUSH20 0xFFFFFFFFFFFFFFFFFFFFFFFFFFFFFFFFFFFFFFFF AND CALLER PUSH20 0xFFFFFFFFFFFFFFFFFFFFFFFFFFFFFFFFFFFFFFFF AND EQ PUSH2 0x2258 JUMPI PUSH1 0x40 MLOAD PUSH32 0x8C379A000000000000000000000000000000000000000000000000000000000 DUP2 MSTORE PUSH1 0x4 ADD PUSH2 0x224F SWAP1 PUSH2 0x390C JUMP JUMPDEST PUSH1 0x40 MLOAD DUP1 SWAP2 SUB SWAP1 REVERT JUMPDEST PUSH2 0x2260 PUSH2 0x30F0 JUMP JUMPDEST JUMPDEST JUMPDEST JUMP JUMPDEST PUSH1 0x5 PUSH1 0x1 SWAP1 SLOAD SWAP1 PUSH2 0x100 EXP SWAP1 DIV PUSH20 0xFFFFFFFFFFFFFFFFFFFFFFFFFFFFFFFFFFFFFFFF AND PUSH20 0xFFFFFFFFFFFFFFFFFFFFFFFFFFFFFFFFFFFFFFFF AND CALLER PUSH20 0xFFFFFFFFFFFFFFFFFFFFFFFFFFFFFFFFFFFFFFFF AND SUB PUSH2 0x22F7 JUMPI PUSH1 0x0 PUSH1 0x6 PUSH1 0x0 SWAP1 SLOAD SWAP1 PUSH2 0x100 EXP SWAP1 DIV PUSH20 0xFFFFFFFFFFFFFFFFFFFFFFFFFFFFFFFFFFFFFFFF AND SWAP1 POP PUSH2 0x22E9 DUP2 PUSH2 0x3234 JUMP JUMPDEST PUSH2 0x22F1 PUSH2 0x327E JUMP JUMPDEST POP PUSH2 0x238B JUMP JUMPDEST PUSH1 0x6 PUSH1 0x0 SWAP1 SLOAD SWAP1 PUSH2 0x100 EXP SWAP1 DIV PUSH20 0xFFFFFFFFFFFFFFFFFFFFFFFFFFFFFFFFFFFFFFFF AND PUSH20 0xFFFFFFFFFFFFFFFFFFFFFFFFFFFFFFFFFFFFFFFF AND CALLER PUSH20 0xFFFFFFFFFFFFFFFFFFFFFFFFFFFFFFFFFFFFFFFF AND EQ PUSH2 0x2351 JUMPI PUSH1 0x0 DUP1 REVERT JUMPDEST PUSH1 0x0 PUSH1 0x5 PUSH1 0x1 SWAP1 SLOAD SWAP1 PUSH2 0x100 EXP SWAP1 DIV PUSH20 0xFFFFFFFFFFFFFFFFFFFFFFFFFFFFFFFFFFFFFFFF AND SWAP1 POP PUSH2 0x2381 DUP2 PUSH2 0x3234 JUMP JUMPDEST PUSH2 0x2389 PUSH2 0x327E JUMP JUMPDEST POP JUMPDEST JUMP JUMPDEST PUSH1 0x0 PUSH1 0x6 PUSH1 0x0 SWAP1 SLOAD SWAP1 PUSH2 0x100 EXP SWAP1 DIV PUSH20 0xFFFFFFFFFFFFFFFFFFFFFFFFFFFFFFFFFFFFFFFF AND PUSH20 0xFFFFFFFFFFFFFFFFFFFFFFFFFFFFFFFFFFFFFFFF AND CALLER PUSH20 0xFFFFFFFFFFFFFFFFFFFFFFFFFFFFFFFFFFFFFFFF AND EQ PUSH2 0x241F JUMPI PUSH1 0x40 MLOAD PUSH32 0x8C379A000000000000000000000000000000000000000000000000000000000 DUP2 MSTORE PUSH1 0x4 ADD PUSH2 0x2416 SWAP1 PUSH2 0x380E JUMP JUMPDEST PUSH1 0x40 MLOAD DUP1 SWAP2 SUB SWAP1 REVERT JUMPDEST PUSH1 0x1 SLOAD SWAP1 POP SWAP1 JUMP JUMPDEST PUSH1 0x1 PUSH1 0x3 PUSH1 0x1 PUSH2 0x100 EXP DUP2 SLOAD DUP2 PUSH1 0xFF MUL NOT AND SWAP1 DUP4 ISZERO ISZERO MUL OR SWAP1 SSTORE PUSH2 0x2480 JUMPI PUSH1 0x40 MLOAD PUSH32 0x8C379A000000000000000000000000000000000000000000000000000000000 DUP2 MSTORE PUSH1 0x4 ADD PUSH2 0x2477 SWAP1 PUSH2 0x399E JUMP JUMPDEST PUSH1 0x40 MLOAD DUP1 SWAP2 SUB SWAP1 REVERT JUMPDEST DUP1 PUSH3 0xF4240 CALLER PUSH20 0xFFFFFFFFFFFFFFFFFFFFFFFFFFFFFFFFFFFFFFFF AND BALANCE PUSH2 0x24A7 SWAP2 SWAP1 PUSH2 0x3630 JUMP JUMPDEST LT ISZERO PUSH2 0x24B2 JUMPI PUSH1 0x0 DUP1 REVERT JUMPDEST PUSH8 0xDE0B6B3A7640000 DUP2 PUSH2 0x24C6 SWAP2 SWAP1 PUSH2 0x39BE JUMP JUMPDEST PUSH1 0xA DUP2 SWAP1 SSTORE POP POP JUMP JUMPDEST PUSH1 0x0 ISZERO ISZERO PUSH1 0x3 PUSH1 0x2 SWAP1 SLOAD SWAP1 PUSH2 0x100 EXP SWAP1 DIV PUSH1 0xFF AND ISZERO ISZERO SUB PUSH2 0x2566 JUMPI PUSH1 0x9 SLOAD CALLVALUE EQ PUSH2 0x252E JUMPI PUSH1 0x40 MLOAD PUSH32 0x8C379A000000000000000000000000000000000000000000000000000000000 DUP2 MSTORE PUSH1 0x4 ADD PUSH2 0x2525 SWAP1 PUSH2 0x3A8A JUMP JUMPDEST PUSH1 0x40 MLOAD DUP1 SWAP2 SUB SWAP1 REVERT JUMPDEST CALLVALUE PUSH1 0x7 SLOAD PUSH2 0x253C SWAP2 SWAP1 PUSH2 0x3630 JUMP JUMPDEST PUSH1 0x7 DUP2 SWAP1 SSTORE POP PUSH1 0x1 PUSH1 0x3 PUSH1 0x2 PUSH2 0x100 EXP DUP2 SLOAD DUP2 PUSH1 0xFF MUL NOT AND SWAP1 DUP4 ISZERO ISZERO MUL OR SWAP1 SSTORE POP PUSH1 0x0 PUSH1 0x9 DUP2 SWAP1 SSTORE POP JUMPDEST JUMP JUMPDEST PUSH1 0x1 ISZERO ISZERO PUSH1 0x3 PUSH1 0x1 SWAP1 SLOAD SWAP1 PUSH2 0x100 EXP SWAP1 DIV PUSH1 0xFF AND ISZERO ISZERO SUB PUSH2 0x2AC5 JUMPI PUSH1 0x0 ISZERO ISZERO PUSH1 0x3 PUSH1 0x0 SWAP1 SLOAD SWAP1 PUSH2 0x100 EXP SWAP1 DIV PUSH1 0xFF AND ISZERO ISZERO SUB PUSH2 0x2879 JUMPI PUSH1 0x5 PUSH1 0x1 SWAP1 SLOAD SWAP1 PUSH2 0x100 EXP SWAP1 DIV PUSH20 0xFFFFFFFFFFFFFFFFFFFFFFFFFFFFFFFFFFFFFFFF AND PUSH20 0xFFFFFFFFFFFFFFFFFFFFFFFFFFFFFFFFFFFFFFFF AND CALLER PUSH20 0xFFFFFFFFFFFFFFFFFFFFFFFFFFFFFFFFFFFFFFFF AND SUB PUSH2 0x262E JUMPI PUSH1 0x40 MLOAD PUSH32 0x8C379A000000000000000000000000000000000000000000000000000000000 DUP2 MSTORE PUSH1 0x4 ADD PUSH2 0x2625 SWAP1 PUSH2 0x3475 JUMP JUMPDEST PUSH1 0x40 MLOAD DUP1 SWAP2 SUB SWAP1 REVERT JUMPDEST PUSH1 0x1 ISZERO ISZERO PUSH1 0x3 PUSH1 0x1 SWAP1 SLOAD SWAP1 PUSH2 0x100 EXP SWAP1 DIV PUSH1 0xFF AND ISZERO ISZERO SUB PUSH2 0x27D7 JUMPI PUSH1 0x1 ISZERO ISZERO PUSH1 0x3 PUSH1 0x0 SWAP1 SLOAD SWAP1 PUSH2 0x100 EXP SWAP1 DIV PUSH1 0xFF AND ISZERO ISZERO SUB PUSH2 0x2746 JUMPI CALLVALUE PUSH1 0x7 SLOAD PUSH2 0x2672 SWAP2 SWAP1 PUSH2 0x3630 JUMP JUMPDEST PUSH1 0x7 DUP2 SWAP1 SSTORE POP CALLER PUSH1 0x5 PUSH1 0x1 PUSH2 0x100 EXP DUP2 SLOAD DUP2 PUSH20 0xFFFFFFFFFFFFFFFFFFFFFFFFFFFFFFFFFFFFFFFF MUL NOT AND SWAP1 DUP4 PUSH20 0xFFFFFFFFFFFFFFFFFFFFFFFFFFFFFFFFFFFFFFFF AND MUL OR SWAP1 SSTORE POP CALLER PUSH20 0xFFFFFFFFFFFFFFFFFFFFFFFFFFFFFFFFFFFFFFFF AND PUSH32 0xDF9A51129930649214DF58F542322C245372C6F2FA6FC3C9B40D927C597CD230 CALLVALUE TIMESTAMP PUSH1 0x40 MLOAD PUSH2 0x2701 SWAP3 SWAP2 SWAP1 PUSH2 0x36D0 JUMP JUMPDEST PUSH1 0x40 MLOAD DUP1 SWAP2 SUB SWAP1 LOG2 PUSH1 0x0 PUSH1 0x3 PUSH1 0x0 PUSH2 0x100 EXP DUP2 SLOAD DUP2 PUSH1 0xFF MUL NOT AND SWAP1 DUP4 ISZERO ISZERO MUL OR SWAP1 SSTORE POP PUSH1 0x7 PUSH1 0x0 DUP2 SLOAD DUP1 SWAP3 SWAP2 SWAP1 PUSH2 0x2737 SWAP1 PUSH2 0x36F9 JUMP JUMPDEST SWAP2 SWAP1 POP SSTORE PUSH1 0x7 DUP2 SWAP1 SSTORE POP PUSH2 0x27D2 JUMP JUMPDEST CALLVALUE PUSH1 0x8 SLOAD PUSH2 0x2754 SWAP2 SWAP1 PUSH2 0x3630 JUMP JUMPDEST PUSH1 0x8 DUP2 SWAP1 SSTORE POP PUSH1 0x0 PUSH1 0x3 PUSH1 0x1 PUSH2 0x100 EXP DUP2 SLOAD DUP2 PUSH1 0xFF MUL NOT AND SWAP1 DUP4 ISZERO ISZERO MUL OR SWAP1 SSTORE POP CALLER PUSH1 0x6 PUSH1 0x0 PUSH2 0x100 EXP DUP2 SLOAD DUP2 PUSH20 0xFFFFFFFFFFFFFFFFFFFFFFFFFFFFFFFFFFFFFFFF MUL NOT AND SWAP1 DUP4 PUSH20 0xFFFFFFFFFFFFFFFFFFFFFFFFFFFFFFFFFFFFFFFF AND MUL OR SWAP1 SSTORE POP PUSH1 0x1 PUSH1 0x3 PUSH1 0x0 PUSH2 0x100 EXP DUP2 SLOAD DUP2 PUSH1 0xFF MUL NOT AND SWAP1 DUP4 ISZERO ISZERO MUL OR SWAP1 SSTORE POP JUMPDEST PUSH2 0x2874 JUMP JUMPDEST PUSH1 0x1 ISZERO ISZERO PUSH1 0x3 PUSH1 0x0 SWAP1 SLOAD SWAP1 PUSH2 0x100 EXP SWAP1 DIV PUSH1 0xFF AND ISZERO ISZERO SUB PUSH2 0x2843 JUMPI PUSH1 0x0 PUSH1 0x3 PUSH1 0x0 PUSH2 0x100 EXP DUP2 SLOAD DUP2 PUSH1 0xFF MUL NOT AND SWAP1 DUP4 ISZERO ISZERO MUL OR SWAP1 SSTORE POP CALLVALUE PUSH1 0x7 SLOAD PUSH2 0x281B SWAP2 SWAP1 PUSH2 0x3630 JUMP JUMPDEST PUSH1 0x7 DUP2 SWAP1 SSTORE POP PUSH1 0x7 PUSH1 0x0 DUP2 SLOAD DUP1 SWAP3 SWAP2 SWAP1 PUSH2 0x2834 SWAP1 PUSH2 0x36F9 JUMP JUMPDEST SWAP2 SWAP1 POP SSTORE PUSH1 0x7 DUP2 SWAP1 SSTORE POP PUSH2 0x2873 JUMP JUMPDEST PUSH1 0x1 PUSH1 0x3 PUSH1 0x0 PUSH2 0x100 EXP DUP2 SLOAD DUP2 PUSH1 0xFF MUL NOT AND SWAP1 DUP4 ISZERO ISZERO MUL OR SWAP1 SSTORE POP CALLVALUE PUSH1 0x8 SLOAD PUSH2 0x286C SWAP2 SWAP1 PUSH2 0x3630 JUMP JUMPDEST PUSH1 0x8 DUP2 SWAP1 SSTORE POP JUMPDEST JUMPDEST PUSH2 0x2AC0 JUMP JUMPDEST PUSH1 0x1 ISZERO ISZERO PUSH1 0x3 PUSH1 0x1 SWAP1 SLOAD SWAP1 PUSH2 0x100 EXP SWAP1 DIV PUSH1 0xFF AND ISZERO ISZERO SUB PUSH2 0x2A22 JUMPI PUSH1 0x1 ISZERO ISZERO PUSH1 0x3 PUSH1 0x0 SWAP1 SLOAD SWAP1 PUSH2 0x100 EXP SWAP1 DIV PUSH1 0xFF AND ISZERO ISZERO SUB PUSH2 0x2991 JUMPI CALLVALUE PUSH1 0x7 SLOAD PUSH2 0x28BD SWAP2 SWAP1 PUSH2 0x3630 JUMP JUMPDEST PUSH1 0x7 DUP2 SWAP1 SSTORE POP CALLER PUSH1 0x5 PUSH1 0x1 PUSH2 0x100 EXP DUP2 SLOAD DUP2 PUSH20 0xFFFFFFFFFFFFFFFFFFFFFFFFFFFFFFFFFFFFFFFF MUL NOT AND SWAP1 DUP4 PUSH20 0xFFFFFFFFFFFFFFFFFFFFFFFFFFFFFFFFFFFFFFFF AND MUL OR SWAP1 SSTORE POP CALLER PUSH20 0xFFFFFFFFFFFFFFFFFFFFFFFFFFFFFFFFFFFFFFFF AND PUSH32 0xDF9A51129930649214DF58F542322C245372C6F2FA6FC3C9B40D927C597CD230 CALLVALUE TIMESTAMP PUSH1 0x40 MLOAD PUSH2 0x294C SWAP3 SWAP2 SWAP1 PUSH2 0x36D0 JUMP JUMPDEST PUSH1 0x40 MLOAD DUP1 SWAP2 SUB SWAP1 LOG2 PUSH1 0x0 PUSH1 0x3 PUSH1 0x0 PUSH2 0x100 EXP DUP2 SLOAD DUP2 PUSH1 0xFF MUL NOT AND SWAP1 DUP4 ISZERO ISZERO MUL OR SWAP1 SSTORE POP PUSH1 0x7 PUSH1 0x0 DUP2 SLOAD DUP1 SWAP3 SWAP2 SWAP1 PUSH2 0x2982 SWAP1 PUSH2 0x36F9 JUMP JUMPDEST SWAP2 SWAP1 POP SSTORE PUSH1 0x7 DUP2 SWAP1 SSTORE POP PUSH2 0x2A1D JUMP JUMPDEST CALLVALUE PUSH1 0x8 SLOAD PUSH2 0x299F SWAP2 SWAP1 PUSH2 0x3630 JUMP JUMPDEST PUSH1 0x8 DUP2 SWAP1 SSTORE POP PUSH1 0x0 PUSH1 0x3 PUSH1 0x1 PUSH2 0x100 EXP DUP2 SLOAD DUP2 PUSH1 0xFF MUL NOT AND SWAP1 DUP4 ISZERO ISZERO MUL OR SWAP1 SSTORE POP CALLER PUSH1 0x6 PUSH1 0x0 PUSH2 0x100 EXP DUP2 SLOAD DUP2 PUSH20 0xFFFFFFFFFFFFFFFFFFFFFFFFFFFFFFFFFFFFFFFF MUL NOT AND SWAP1 DUP4 PUSH20 0xFFFFFFFFFFFFFFFFFFFFFFFFFFFFFFFFFFFFFFFF AND MUL OR SWAP1 SSTORE POP PUSH1 0x1 PUSH1 0x3 PUSH1 0x0 PUSH2 0x100 EXP DUP2 SLOAD DUP2 PUSH1 0xFF MUL NOT AND SWAP1 DUP4 ISZERO ISZERO MUL OR SWAP1 SSTORE POP JUMPDEST PUSH2 0x2ABF JUMP JUMPDEST PUSH1 0x1 ISZERO ISZERO PUSH1 0x3 PUSH1 0x0 SWAP1 SLOAD SWAP1 PUSH2 0x100 EXP SWAP1 DIV PUSH1 0xFF AND ISZERO ISZERO SUB PUSH2 0x2A8E JUMPI PUSH1 0x0 PUSH1 0x3 PUSH1 0x0 PUSH2 0x100 EXP DUP2 SLOAD DUP2 PUSH1 0xFF MUL NOT AND SWAP1 DUP4 ISZERO ISZERO MUL OR SWAP1 SSTORE POP CALLVALUE PUSH1 0x7 SLOAD PUSH2 0x2A66 SWAP2 SWAP1 PUSH2 0x3630 JUMP JUMPDEST PUSH1 0x7 DUP2 SWAP1 SSTORE POP PUSH1 0x7 PUSH1 0x0 DUP2 SLOAD DUP1 SWAP3 SWAP2 SWAP1 PUSH2 0x2A7F SWAP1 PUSH2 0x36F9 JUMP JUMPDEST SWAP2 SWAP1 POP SSTORE PUSH1 0x7 DUP2 SWAP1 SSTORE POP PUSH2 0x2ABE JUMP JUMPDEST PUSH1 0x1 PUSH1 0x3 PUSH1 0x0 PUSH2 0x100 EXP DUP2 SLOAD DUP2 PUSH1 0xFF MUL NOT AND SWAP1 DUP4 ISZERO ISZERO MUL OR SWAP1 SSTORE POP CALLVALUE PUSH1 0x8 SLOAD PUSH2 0x2AB7 SWAP2 SWAP1 PUSH2 0x3630 JUMP JUMPDEST PUSH1 0x8 DUP2 SWAP1 SSTORE POP JUMPDEST JUMPDEST JUMPDEST PUSH2 0x3093 JUMP JUMPDEST PUSH1 0x1 ISZERO ISZERO PUSH1 0x3 PUSH1 0x0 SWAP1 SLOAD SWAP1 PUSH2 0x100 EXP SWAP1 DIV PUSH1 0xFF AND ISZERO ISZERO SUB PUSH2 0x2DBB JUMPI PUSH1 0x5 PUSH1 0x1 SWAP1 SLOAD SWAP1 PUSH2 0x100 EXP SWAP1 DIV PUSH20 0xFFFFFFFFFFFFFFFFFFFFFFFFFFFFFFFFFFFFFFFF AND PUSH20 0xFFFFFFFFFFFFFFFFFFFFFFFFFFFFFFFFFFFFFFFF AND CALLER PUSH20 0xFFFFFFFFFFFFFFFFFFFFFFFFFFFFFFFFFFFFFFFF AND EQ PUSH2 0x2B70 JUMPI PUSH1 0x40 MLOAD PUSH32 0x8C379A000000000000000000000000000000000000000000000000000000000 DUP2 MSTORE PUSH1 0x4 ADD PUSH2 0x2B67 SWAP1 PUSH2 0x37A2 JUMP JUMPDEST PUSH1 0x40 MLOAD DUP1 SWAP2 SUB SWAP1 REVERT JUMPDEST PUSH1 0x1 ISZERO ISZERO PUSH1 0x3 PUSH1 0x1 SWAP1 SLOAD SWAP1 PUSH2 0x100 EXP SWAP1 DIV PUSH1 0xFF AND ISZERO ISZERO SUB PUSH2 0x2D19 JUMPI PUSH1 0x1 ISZERO ISZERO PUSH1 0x3 PUSH1 0x0 SWAP1 SLOAD SWAP1 PUSH2 0x100 EXP SWAP1 DIV PUSH1 0xFF AND ISZERO ISZERO SUB PUSH2 0x2C88 JUMPI CALLVALUE PUSH1 0x7 SLOAD PUSH2 0x2BB4 SWAP2 SWAP1 PUSH2 0x3630 JUMP JUMPDEST PUSH1 0x7 DUP2 SWAP1 SSTORE POP CALLER PUSH1 0x5 PUSH1 0x1 PUSH2 0x100 EXP DUP2 SLOAD DUP2 PUSH20 0xFFFFFFFFFFFFFFFFFFFFFFFFFFFFFFFFFFFFFFFF MUL NOT AND SWAP1 DUP4 PUSH20 0xFFFFFFFFFFFFFFFFFFFFFFFFFFFFFFFFFFFFFFFF AND MUL OR SWAP1 SSTORE POP CALLER PUSH20 0xFFFFFFFFFFFFFFFFFFFFFFFFFFFFFFFFFFFFFFFF AND PUSH32 0xDF9A51129930649214DF58F542322C245372C6F2FA6FC3C9B40D927C597CD230 CALLVALUE TIMESTAMP PUSH1 0x40 MLOAD PUSH2 0x2C43 SWAP3 SWAP2 SWAP1 PUSH2 0x36D0 JUMP JUMPDEST PUSH1 0x40 MLOAD DUP1 SWAP2 SUB SWAP1 LOG2 PUSH1 0x0 PUSH1 0x3 PUSH1 0x0 PUSH2 0x100 EXP DUP2 SLOAD DUP2 PUSH1 0xFF MUL NOT AND SWAP1 DUP4 ISZERO ISZERO MUL OR SWAP1 SSTORE POP PUSH1 0x7 PUSH1 0x0 DUP2 SLOAD DUP1 SWAP3 SWAP2 SWAP1 PUSH2 0x2C79 SWAP1 PUSH2 0x36F9 JUMP JUMPDEST SWAP2 SWAP1 POP SSTORE PUSH1 0x7 DUP2 SWAP1 SSTORE POP PUSH2 0x2D14 JUMP JUMPDEST CALLVALUE PUSH1 0x8 SLOAD PUSH2 0x2C96 SWAP2 SWAP1 PUSH2 0x3630 JUMP JUMPDEST PUSH1 0x8 DUP2 SWAP1 SSTORE POP PUSH1 0x0 PUSH1 0x3 PUSH1 0x1 PUSH2 0x100 EXP DUP2 SLOAD DUP2 PUSH1 0xFF MUL NOT AND SWAP1 DUP4 ISZERO ISZERO MUL OR SWAP1 SSTORE POP CALLER PUSH1 0x6 PUSH1 0x0 PUSH2 0x100 EXP DUP2 SLOAD DUP2 PUSH20 0xFFFFFFFFFFFFFFFFFFFFFFFFFFFFFFFFFFFFFFFF MUL NOT AND SWAP1 DUP4 PUSH20 0xFFFFFFFFFFFFFFFFFFFFFFFFFFFFFFFFFFFFFFFF AND MUL OR SWAP1 SSTORE POP PUSH1 0x1 PUSH1 0x3 PUSH1 0x0 PUSH2 0x100 EXP DUP2 SLOAD DUP2 PUSH1 0xFF MUL NOT AND SWAP1 DUP4 ISZERO ISZERO MUL OR SWAP1 SSTORE POP JUMPDEST PUSH2 0x2DB6 JUMP JUMPDEST PUSH1 0x1 ISZERO ISZERO PUSH1 0x3 PUSH1 0x0 SWAP1 SLOAD SWAP1 PUSH2 0x100 EXP SWAP1 DIV PUSH1 0xFF AND ISZERO ISZERO SUB PUSH2 0x2D85 JUMPI PUSH1 0x0 PUSH1 0x3 PUSH1 0x0 PUSH2 0x100 EXP DUP2 SLOAD DUP2 PUSH1 0xFF MUL NOT AND SWAP1 DUP4 ISZERO ISZERO MUL OR SWAP1 SSTORE POP CALLVALUE PUSH1 0x7 SLOAD PUSH2 0x2D5D SWAP2 SWAP1 PUSH2 0x3630 JUMP JUMPDEST PUSH1 0x7 DUP2 SWAP1 SSTORE POP PUSH1 0x7 PUSH1 0x0 DUP2 SLOAD DUP1 SWAP3 SWAP2 SWAP1 PUSH2 0x2D76 SWAP1 PUSH2 0x36F9 JUMP JUMPDEST SWAP2 SWAP1 POP SSTORE PUSH1 0x7 DUP2 SWAP1 SSTORE POP PUSH2 0x2DB5 JUMP JUMPDEST PUSH1 0x1 PUSH1 0x3 PUSH1 0x0 PUSH2 0x100 EXP DUP2 SLOAD DUP2 PUSH1 0xFF MUL NOT AND SWAP1 DUP4 ISZERO ISZERO MUL OR SWAP1 SSTORE POP CALLVALUE PUSH1 0x8 SLOAD PUSH2 0x2DAE SWAP2 SWAP1 PUSH2 0x3630 JUMP JUMPDEST PUSH1 0x8 DUP2 SWAP1 SSTORE POP JUMPDEST JUMPDEST PUSH2 0x3092 JUMP JUMPDEST PUSH1 0x6 PUSH1 0x0 SWAP1 SLOAD SWAP1 PUSH2 0x100 EXP SWAP1 DIV PUSH20 0xFFFFFFFFFFFFFFFFFFFFFFFFFFFFFFFFFFFFFFFF AND PUSH20 0xFFFFFFFFFFFFFFFFFFFFFFFFFFFFFFFFFFFFFFFF AND CALLER PUSH20 0xFFFFFFFFFFFFFFFFFFFFFFFFFFFFFFFFFFFFFFFF AND EQ PUSH2 0x2E4B JUMPI PUSH1 0x40 MLOAD PUSH32 0x8C379A000000000000000000000000000000000000000000000000000000000 DUP2 MSTORE PUSH1 0x4 ADD PUSH2 0x2E42 SWAP1 PUSH2 0x37A2 JUMP JUMPDEST PUSH1 0x40 MLOAD DUP1 SWAP2 SUB SWAP1 REVERT JUMPDEST PUSH1 0x1 ISZERO ISZERO PUSH1 0x3 PUSH1 0x1 SWAP1 SLOAD SWAP1 PUSH2 0x100 EXP SWAP1 DIV PUSH1 0xFF AND ISZERO ISZERO SUB PUSH2 0x2FF4 JUMPI PUSH1 0x1 ISZERO ISZERO PUSH1 0x3 PUSH1 0x0 SWAP1 SLOAD SWAP1 PUSH2 0x100 EXP SWAP1 DIV PUSH1 0xFF AND ISZERO ISZERO SUB PUSH2 0x2F63 JUMPI CALLVALUE PUSH1 0x7 SLOAD PUSH2 0x2E8F SWAP2 SWAP1 PUSH2 0x3630 JUMP JUMPDEST PUSH1 0x7 DUP2 SWAP1 SSTORE POP CALLER PUSH1 0x5 PUSH1 0x1 PUSH2 0x100 EXP DUP2 SLOAD DUP2 PUSH20 0xFFFFFFFFFFFFFFFFFFFFFFFFFFFFFFFFFFFFFFFF MUL NOT AND SWAP1 DUP4 PUSH20 0xFFFFFFFFFFFFFFFFFFFFFFFFFFFFFFFFFFFFFFFF AND MUL OR SWAP1 SSTORE POP CALLER PUSH20 0xFFFFFFFFFFFFFFFFFFFFFFFFFFFFFFFFFFFFFFFF AND PUSH32 0xDF9A51129930649214DF58F542322C245372C6F2FA6FC3C9B40D927C597CD230 CALLVALUE TIMESTAMP PUSH1 0x40 MLOAD PUSH2 0x2F1E SWAP3 SWAP2 SWAP1 PUSH2 0x36D0 JUMP JUMPDEST PUSH1 0x40 MLOAD DUP1 SWAP2 SUB SWAP1 LOG2 PUSH1 0x0 PUSH1 0x3 PUSH1 0x0 PUSH2 0x100 EXP DUP2 SLOAD DUP2 PUSH1 0xFF MUL NOT AND SWAP1 DUP4 ISZERO ISZERO MUL OR SWAP1 SSTORE POP PUSH1 0x7 PUSH1 0x0 DUP2 SLOAD DUP1 SWAP3 SWAP2 SWAP1 PUSH2 0x2F54 SWAP1 PUSH2 0x36F9 JUMP JUMPDEST SWAP2 SWAP1 POP SSTORE PUSH1 0x7 DUP2 SWAP1 SSTORE POP PUSH2 0x2FEF JUMP JUMPDEST CALLVALUE PUSH1 0x8 SLOAD PUSH2 0x2F71 SWAP2 SWAP1 PUSH2 0x3630 JUMP JUMPDEST PUSH1 0x8 DUP2 SWAP1 SSTORE POP PUSH1 0x0 PUSH1 0x3 PUSH1 0x1 PUSH2 0x100 EXP DUP2 SLOAD DUP2 PUSH1 0xFF MUL NOT AND SWAP1 DUP4 ISZERO ISZERO MUL OR SWAP1 SSTORE POP CALLER PUSH1 0x6 PUSH1 0x0 PUSH2 0x100 EXP DUP2 SLOAD DUP2 PUSH20 0xFFFFFFFFFFFFFFFFFFFFFFFFFFFFFFFFFFFFFFFF MUL NOT AND SWAP1 DUP4 PUSH20 0xFFFFFFFFFFFFFFFFFFFFFFFFFFFFFFFFFFFFFFFF AND MUL OR SWAP1 SSTORE POP PUSH1 0x1 PUSH1 0x3 PUSH1 0x0 PUSH2 0x100 EXP DUP2 SLOAD DUP2 PUSH1 0xFF MUL NOT AND SWAP1 DUP4 ISZERO ISZERO MUL OR SWAP1 SSTORE POP JUMPDEST PUSH2 0x3091 JUMP JUMPDEST PUSH1 0x1 ISZERO ISZERO PUSH1 0x3 PUSH1 0x0 SWAP1 SLOAD SWAP1 PUSH2 0x100 EXP SWAP1 DIV PUSH1 0xFF AND ISZERO ISZERO SUB PUSH2 0x3060 JUMPI PUSH1 0x0 PUSH1 0x3 PUSH1 0x0 PUSH2 0x100 EXP DUP2 SLOAD DUP2 PUSH1 0xFF MUL NOT AND SWAP1 DUP4 ISZERO ISZERO MUL OR SWAP1 SSTORE POP CALLVALUE PUSH1 0x7 SLOAD PUSH2 0x3038 SWAP2 SWAP1 PUSH2 0x3630 JUMP JUMPDEST PUSH1 0x7 DUP2 SWAP1 SSTORE POP PUSH1 0x7 PUSH1 0x0 DUP2 SLOAD DUP1 SWAP3 SWAP2 SWAP1 PUSH2 0x3051 SWAP1 PUSH2 0x36F9 JUMP JUMPDEST SWAP2 SWAP1 POP SSTORE PUSH1 0x7 DUP2 SWAP1 SSTORE POP PUSH2 0x3090 JUMP JUMPDEST PUSH1 0x1 PUSH1 0x3 PUSH1 0x0 PUSH2 0x100 EXP DUP2 SLOAD DUP2 PUSH1 0xFF MUL NOT AND SWAP1 DUP4 ISZERO ISZERO MUL OR SWAP1 SSTORE POP CALLVALUE PUSH1 0x8 SLOAD PUSH2 0x3089 SWAP2 SWAP1 PUSH2 0x3630 JUMP JUMPDEST PUSH1 0x8 DUP2 SWAP1 SSTORE POP JUMPDEST JUMPDEST JUMPDEST JUMPDEST JUMP JUMPDEST PUSH1 0x8 SLOAD DUP2 JUMP JUMPDEST PUSH1 0xA TIMESTAMP CALLER PUSH1 0x40 MLOAD PUSH1 0x20 ADD PUSH2 0x30B0 SWAP3 SWAP2 SWAP1 PUSH2 0x3B45 JUMP JUMPDEST PUSH1 0x40 MLOAD PUSH1 0x20 DUP2 DUP4 SUB SUB DUP2 MSTORE SWAP1 PUSH1 0x40 MSTORE DUP1 MLOAD SWAP1 PUSH1 0x20 ADD KECCAK256 PUSH1 0x0 SHR PUSH2 0x30D3 SWAP2 SWAP1 PUSH2 0x3BA0 JUMP JUMPDEST PUSH1 0x4 DUP2 SWAP1 SSTORE POP PUSH1 0x1 PUSH1 0x4 SLOAD PUSH2 0x30E8 SWAP2 SWAP1 PUSH2 0x3630 JUMP JUMPDEST PUSH1 0x4 DUP2 SWAP1 SSTORE POP JUMP JUMPDEST PUSH1 0x1 SLOAD PUSH1 0x0 SLOAD GT ISZERO PUSH2 0x3173 JUMPI PUSH1 0x15 PUSH1 0x0 SLOAD GT PUSH2 0x313C JUMPI PUSH1 0x0 PUSH1 0x5 PUSH1 0x1 SWAP1 SLOAD SWAP1 PUSH2 0x100 EXP SWAP1 DIV PUSH20 0xFFFFFFFFFFFFFFFFFFFFFFFFFFFFFFFFFFFFFFFF AND SWAP1 POP PUSH2 0x3136 DUP2 PUSH2 0x3234 JUMP JUMPDEST POP PUSH2 0x316E JUMP JUMPDEST PUSH1 0x0 PUSH1 0x6 PUSH1 0x0 SWAP1 SLOAD SWAP1 PUSH2 0x100 EXP SWAP1 DIV PUSH20 0xFFFFFFFFFFFFFFFFFFFFFFFFFFFFFFFFFFFFFFFF AND SWAP1 POP PUSH2 0x316C DUP2 PUSH2 0x3234 JUMP JUMPDEST POP JUMPDEST PUSH2 0x322A JUMP JUMPDEST PUSH1 0x1 SLOAD PUSH1 0x0 SLOAD LT ISZERO PUSH2 0x31F6 JUMPI PUSH1 0x15 PUSH1 0x1 SLOAD GT PUSH2 0x31BF JUMPI PUSH1 0x0 PUSH1 0x6 PUSH1 0x0 SWAP1 SLOAD SWAP1 PUSH2 0x100 EXP SWAP1 DIV PUSH20 0xFFFFFFFFFFFFFFFFFFFFFFFFFFFFFFFFFFFFFFFF AND SWAP1 POP PUSH2 0x31B9 DUP2 PUSH2 0x3234 JUMP JUMPDEST POP PUSH2 0x31F1 JUMP JUMPDEST PUSH1 0x0 PUSH1 0x5 PUSH1 0x1 SWAP1 SLOAD SWAP1 PUSH2 0x100 EXP SWAP1 DIV PUSH20 0xFFFFFFFFFFFFFFFFFFFFFFFFFFFFFFFFFFFFFFFF AND SWAP1 POP PUSH2 0x31EF DUP2 PUSH2 0x3234 JUMP JUMPDEST POP JUMPDEST PUSH2 0x3229 JUMP JUMPDEST PUSH2 0x31FE PUSH2 0x309B JUMP JUMPDEST PUSH1 0x4 SLOAD PUSH1 0x0 SLOAD PUSH2 0x320E SWAP2 SWAP1 PUSH2 0x3630 JUMP JUMPDEST POP PUSH1 0x4 SLOAD PUSH1 0x1 SLOAD PUSH2 0x321F SWAP2 SWAP1 PUSH2 0x3630 JUMP JUMPDEST POP PUSH2 0x3228 PUSH2 0x30F0 JUMP JUMPDEST JUMPDEST JUMPDEST PUSH2 0x3232 PUSH2 0x327E JUMP JUMPDEST JUMP JUMPDEST DUP1 PUSH20 0xFFFFFFFFFFFFFFFFFFFFFFFFFFFFFFFFFFFFFFFF AND PUSH2 0x8FC SELFBALANCE SWAP1 DUP2 ISZERO MUL SWAP1 PUSH1 0x40 MLOAD PUSH1 0x0 PUSH1 0x40 MLOAD DUP1 DUP4 SUB DUP2 DUP6 DUP9 DUP9 CALL SWAP4 POP POP POP POP ISZERO DUP1 ISZERO PUSH2 0x327A JUMPI RETURNDATASIZE PUSH1 0x0 DUP1 RETURNDATACOPY RETURNDATASIZE PUSH1 0x0 REVERT JUMPDEST POP POP JUMP JUMPDEST PUSH1 0x0 DUP1 DUP2 SWAP1 SSTORE POP PUSH1 0x0 PUSH1 0x1 DUP2 SWAP1 SSTORE POP PUSH1 0x0 PUSH1 0x2 DUP2 SWAP1 SSTORE POP PUSH1 0x1 PUSH1 0x3 PUSH1 0x0 PUSH2 0x100 EXP DUP2 SLOAD DUP2 PUSH1 0xFF MUL NOT AND SWAP1 DUP4 ISZERO ISZERO MUL OR SWAP1 SSTORE POP PUSH1 0x1 PUSH1 0x3 PUSH1 0x1 PUSH2 0x100 EXP DUP2 SLOAD DUP2 PUSH1 0xFF MUL NOT AND SWAP1 DUP4 ISZERO ISZERO MUL OR SWAP1 SSTORE POP PUSH1 0x1 PUSH1 0x3 PUSH1 0x2 PUSH2 0x100 EXP DUP2 SLOAD DUP2 PUSH1 0xFF MUL NOT AND SWAP1 DUP4 ISZERO ISZERO MUL OR SWAP1 SSTORE POP PUSH1 0x0 PUSH1 0x3 DUP1 PUSH2 0x100 EXP DUP2 SLOAD DUP2 PUSH1 0xFF MUL NOT AND SWAP1 DUP4 ISZERO ISZERO MUL OR SWAP1 SSTORE POP PUSH1 0x0 PUSH1 0x5 PUSH1 0x0 PUSH2 0x100 EXP DUP2 SLOAD DUP2 PUSH1 0xFF MUL NOT AND SWAP1 DUP4 ISZERO ISZERO MUL OR SWAP1 SSTORE POP PUSH1 0x5 PUSH1 0x1 SWAP1 SLOAD SWAP1 PUSH2 0x100 EXP SWAP1 POP POP PUSH1 0x6 PUSH1 0x0 SWAP1 SLOAD SWAP1 PUSH2 0x100 EXP SWAP1 POP POP PUSH1 0x0 PUSH1 0x7 DUP2 SWAP1 SSTORE POP PUSH1 0x0 PUSH1 0x8 DUP2 SWAP1 SSTORE POP PUSH1 0x0 PUSH1 0x9 DUP2 SWAP1 SSTORE POP PUSH8 0xDE0B6B3A7640000 PUSH1 0xA DUP2 SWAP1 SSTORE POP JUMP JUMPDEST PUSH1 0x0 DUP2 SWAP1 POP SWAP2 SWAP1 POP JUMP JUMPDEST PUSH2 0x3373 DUP2 PUSH2 0x3360 JUMP JUMPDEST DUP3 MSTORE POP POP JUMP JUMPDEST PUSH1 0x0 PUSH1 0x20 DUP3 ADD SWAP1 POP PUSH2 0x338E PUSH1 0x0 DUP4 ADD DUP5 PUSH2 0x336A JUMP JUMPDEST SWAP3 SWAP2 POP POP JUMP JUMPDEST PUSH1 0x0 DUP1 REVERT JUMPDEST PUSH2 0x33A2 DUP2 PUSH2 0x3360 JUMP JUMPDEST DUP2 EQ PUSH2 0x33AD JUMPI PUSH1 0x0 DUP1 REVERT JUMPDEST POP JUMP JUMPDEST PUSH1 0x0 DUP2 CALLDATALOAD SWAP1 POP PUSH2 0x33BF DUP2 PUSH2 0x3399 JUMP JUMPDEST SWAP3 SWAP2 POP POP JUMP JUMPDEST PUSH1 0x0 PUSH1 0x20 DUP3 DUP5 SUB SLT ISZERO PUSH2 0x33DB JUMPI PUSH2 0x33DA PUSH2 0x3394 JUMP JUMPDEST JUMPDEST PUSH1 0x0 PUSH2 0x33E9 DUP5 DUP3 DUP6 ADD PUSH2 0x33B0 JUMP JUMPDEST SWAP2 POP POP SWAP3 SWAP2 POP POP JUMP JUMPDEST PUSH1 0x0 DUP3 DUP3 MSTORE PUSH1 0x20 DUP3 ADD SWAP1 POP SWAP3 SWAP2 POP POP JUMP JUMPDEST PUSH32 0x646966666572656E74207573657273206D75737420706C61792066726F6D2064 PUSH1 0x0 DUP3 ADD MSTORE PUSH32 0x6966666572656E742077616C6C65747300000000000000000000000000000000 PUSH1 0x20 DUP3 ADD MSTORE POP JUMP JUMPDEST PUSH1 0x0 PUSH2 0x345F PUSH1 0x30 DUP4 PUSH2 0x33F2 JUMP JUMPDEST SWAP2 POP PUSH2 0x346A DUP3 PUSH2 0x3403 JUMP JUMPDEST PUSH1 0x40 DUP3 ADD SWAP1 POP SWAP2 SWAP1 POP JUMP JUMPDEST PUSH1 0x0 PUSH1 0x20 DUP3 ADD SWAP1 POP DUP2 DUP2 SUB PUSH1 0x0 DUP4 ADD MSTORE PUSH2 0x348E DUP2 PUSH2 0x3452 JUMP JUMPDEST SWAP1 POP SWAP2 SWAP1 POP JUMP JUMPDEST PUSH32 0x706C656173652C207573652066756E6374696F6E2027657175616C697A652720 PUSH1 0x0 DUP3 ADD MSTORE PUSH32 0x746F2072657475726E2064656274000000000000000000000000000000000000 PUSH1 0x20 DUP3 ADD MSTORE POP JUMP JUMPDEST PUSH1 0x0 PUSH2 0x34F1 PUSH1 0x2E DUP4 PUSH2 0x33F2 JUMP JUMPDEST SWAP2 POP PUSH2 0x34FC DUP3 PUSH2 0x3495 JUMP JUMPDEST PUSH1 0x40 DUP3 ADD SWAP1 POP SWAP2 SWAP1 POP JUMP JUMPDEST PUSH1 0x0 PUSH1 0x20 DUP3 ADD SWAP1 POP DUP2 DUP2 SUB PUSH1 0x0 DUP4 ADD MSTORE PUSH2 0x3520 DUP2 PUSH2 0x34E4 JUMP JUMPDEST SWAP1 POP SWAP2 SWAP1 POP JUMP JUMPDEST PUSH32 0x4E487B7100000000000000000000000000000000000000000000000000000000 PUSH1 0x0 MSTORE PUSH1 0x11 PUSH1 0x4 MSTORE PUSH1 0x24 PUSH1 0x0 REVERT JUMPDEST PUSH1 0x0 PUSH2 0x3561 DUP3 PUSH2 0x3360 JUMP JUMPDEST SWAP2 POP PUSH32 0xFFFFFFFFFFFFFFFFFFFFFFFFFFFFFFFFFFFFFFFFFFFFFFFFFFFFFFFFFFFFFFFF DUP3 SUB PUSH2 0x3593 JUMPI PUSH2 0x3592 PUSH2 0x3527 JUMP JUMPDEST JUMPDEST PUSH1 0x1 DUP3 ADD SWAP1 POP SWAP2 SWAP1 POP JUMP JUMPDEST PUSH32 0x796F75722062616C616E6365206973206C6F776572207468616E206D61782062 PUSH1 0x0 DUP3 ADD MSTORE PUSH32 0x6574000000000000000000000000000000000000000000000000000000000000 PUSH1 0x20 DUP3 ADD MSTORE POP JUMP JUMPDEST PUSH1 0x0 PUSH2 0x35FA PUSH1 0x22 DUP4 PUSH2 0x33F2 JUMP JUMPDEST SWAP2 POP PUSH2 0x3605 DUP3 PUSH2 0x359E JUMP JUMPDEST PUSH1 0x40 DUP3 ADD SWAP1 POP SWAP2 SWAP1 POP JUMP JUMPDEST PUSH1 0x0 PUSH1 0x20 DUP3 ADD SWAP1 POP DUP2 DUP2 SUB PUSH1 0x0 DUP4 ADD MSTORE PUSH2 0x3629 DUP2 PUSH2 0x35ED JUMP JUMPDEST SWAP1 POP SWAP2 SWAP1 POP JUMP JUMPDEST PUSH1 0x0 PUSH2 0x363B DUP3 PUSH2 0x3360 JUMP JUMPDEST SWAP2 POP PUSH2 0x3646 DUP4 PUSH2 0x3360 JUMP JUMPDEST SWAP3 POP DUP3 DUP3 ADD SWAP1 POP DUP1 DUP3 GT ISZERO PUSH2 0x365E JUMPI PUSH2 0x365D PUSH2 0x3527 JUMP JUMPDEST JUMPDEST SWAP3 SWAP2 POP POP JUMP JUMPDEST PUSH32 0x796F75722062657420697320686967686572207468656E206D61782062657420 PUSH1 0x0 DUP3 ADD MSTORE POP JUMP JUMPDEST PUSH1 0x0 PUSH2 0x369A PUSH1 0x20 DUP4 PUSH2 0x33F2 JUMP JUMPDEST SWAP2 POP PUSH2 0x36A5 DUP3 PUSH2 0x3664 JUMP JUMPDEST PUSH1 0x20 DUP3 ADD SWAP1 POP SWAP2 SWAP1 POP JUMP JUMPDEST PUSH1 0x0 PUSH1 0x20 DUP3 ADD SWAP1 POP DUP2 DUP2 SUB PUSH1 0x0 DUP4 ADD MSTORE PUSH2 0x36C9 DUP2 PUSH2 0x368D JUMP JUMPDEST SWAP1 POP SWAP2 SWAP1 POP JUMP JUMPDEST PUSH1 0x0 PUSH1 0x40 DUP3 ADD SWAP1 POP PUSH2 0x36E5 PUSH1 0x0 DUP4 ADD DUP6 PUSH2 0x336A JUMP JUMPDEST PUSH2 0x36F2 PUSH1 0x20 DUP4 ADD DUP5 PUSH2 0x336A JUMP JUMPDEST SWAP4 SWAP3 POP POP POP JUMP JUMPDEST PUSH1 0x0 PUSH2 0x3704 DUP3 PUSH2 0x3360 JUMP JUMPDEST SWAP2 POP PUSH1 0x0 DUP3 SUB PUSH2 0x3717 JUMPI PUSH2 0x3716 PUSH2 0x3527 JUMP JUMPDEST JUMPDEST PUSH1 0x1 DUP3 SUB SWAP1 POP SWAP2 SWAP1 POP JUMP JUMPDEST PUSH1 0x0 PUSH2 0x372D DUP3 PUSH2 0x3360 JUMP JUMPDEST SWAP2 POP PUSH2 0x3738 DUP4 PUSH2 0x3360 JUMP JUMPDEST SWAP3 POP DUP3 DUP3 SUB SWAP1 POP DUP2 DUP2 GT ISZERO PUSH2 0x3750 JUMPI PUSH2 0x374F PUSH2 0x3527 JUMP JUMPDEST JUMPDEST SWAP3 SWAP2 POP POP JUMP JUMPDEST PUSH32 0x706C61792066726F6D2031206163636F756E7400000000000000000000000000 PUSH1 0x0 DUP3 ADD MSTORE POP JUMP JUMPDEST PUSH1 0x0 PUSH2 0x378C PUSH1 0x13 DUP4 PUSH2 0x33F2 JUMP JUMPDEST SWAP2 POP PUSH2 0x3797 DUP3 PUSH2 0x3756 JUMP JUMPDEST PUSH1 0x20 DUP3 ADD SWAP1 POP SWAP2 SWAP1 POP JUMP JUMPDEST PUSH1 0x0 PUSH1 0x20 DUP3 ADD SWAP1 POP DUP2 DUP2 SUB PUSH1 0x0 DUP4 ADD MSTORE PUSH2 0x37BB DUP2 PUSH2 0x377F JUMP JUMPDEST SWAP1 POP SWAP2 SWAP1 POP JUMP JUMPDEST PUSH32 0x796F752063616E20636865636B206F6E6C7920796F75722073636F7265730000 PUSH1 0x0 DUP3 ADD MSTORE POP JUMP JUMPDEST PUSH1 0x0 PUSH2 0x37F8 PUSH1 0x1E DUP4 PUSH2 0x33F2 JUMP JUMPDEST SWAP2 POP PUSH2 0x3803 DUP3 PUSH2 0x37C2 JUMP JUMPDEST PUSH1 0x20 DUP3 ADD SWAP1 POP SWAP2 SWAP1 POP JUMP JUMPDEST PUSH1 0x0 PUSH1 0x20 DUP3 ADD SWAP1 POP DUP2 DUP2 SUB PUSH1 0x0 DUP4 ADD MSTORE PUSH2 0x3827 DUP2 PUSH2 0x37EB JUMP JUMPDEST SWAP1 POP SWAP2 SWAP1 POP JUMP JUMPDEST PUSH32 0x736574207468652073616D65206265742E205573652027657175616C697A6527 PUSH1 0x0 DUP3 ADD MSTORE POP JUMP JUMPDEST PUSH1 0x0 PUSH2 0x3864 PUSH1 0x20 DUP4 PUSH2 0x33F2 JUMP JUMPDEST SWAP2 POP PUSH2 0x386F DUP3 PUSH2 0x382E JUMP JUMPDEST PUSH1 0x20 DUP3 ADD SWAP1 POP SWAP2 SWAP1 POP JUMP JUMPDEST PUSH1 0x0 PUSH1 0x20 DUP3 ADD SWAP1 POP DUP2 DUP2 SUB PUSH1 0x0 DUP4 ADD MSTORE PUSH2 0x3893 DUP2 PUSH2 0x3857 JUMP JUMPDEST SWAP1 POP SWAP2 SWAP1 POP JUMP JUMPDEST PUSH32 0x446F206E6F7420696E746572666572652077697468207468652067616D65706C PUSH1 0x0 DUP3 ADD MSTORE PUSH32 0x61792066726F6D2074686972642D7061727479206163636F756E747300000000 PUSH1 0x20 DUP3 ADD MSTORE POP JUMP JUMPDEST PUSH1 0x0 PUSH2 0x38F6 PUSH1 0x3C DUP4 PUSH2 0x33F2 JUMP JUMPDEST SWAP2 POP PUSH2 0x3901 DUP3 PUSH2 0x389A JUMP JUMPDEST PUSH1 0x40 DUP3 ADD SWAP1 POP SWAP2 SWAP1 POP JUMP JUMPDEST PUSH1 0x0 PUSH1 0x20 DUP3 ADD SWAP1 POP DUP2 DUP2 SUB PUSH1 0x0 DUP4 ADD MSTORE PUSH2 0x3925 DUP2 PUSH2 0x38E9 JUMP JUMPDEST SWAP1 POP SWAP2 SWAP1 POP JUMP JUMPDEST PUSH32 0x796F752063616E2774206368616E6765206D61782062657420647572696E6720 PUSH1 0x0 DUP3 ADD MSTORE PUSH32 0x67616D6500000000000000000000000000000000000000000000000000000000 PUSH1 0x20 DUP3 ADD MSTORE POP JUMP JUMPDEST PUSH1 0x0 PUSH2 0x3988 PUSH1 0x24 DUP4 PUSH2 0x33F2 JUMP JUMPDEST SWAP2 POP PUSH2 0x3993 DUP3 PUSH2 0x392C JUMP JUMPDEST PUSH1 0x40 DUP3 ADD SWAP1 POP SWAP2 SWAP1 POP JUMP JUMPDEST PUSH1 0x0 PUSH1 0x20 DUP3 ADD SWAP1 POP DUP2 DUP2 SUB PUSH1 0x0 DUP4 ADD MSTORE PUSH2 0x39B7 DUP2 PUSH2 0x397B JUMP JUMPDEST SWAP1 POP SWAP2 SWAP1 POP JUMP JUMPDEST PUSH1 0x0 PUSH2 0x39C9 DUP3 PUSH2 0x3360 JUMP JUMPDEST SWAP2 POP PUSH2 0x39D4 DUP4 PUSH2 0x3360 JUMP JUMPDEST SWAP3 POP DUP2 PUSH32 0xFFFFFFFFFFFFFFFFFFFFFFFFFFFFFFFFFFFFFFFFFFFFFFFFFFFFFFFFFFFFFFFF DIV DUP4 GT DUP3 ISZERO ISZERO AND ISZERO PUSH2 0x3A0D JUMPI PUSH2 0x3A0C PUSH2 0x3527 JUMP JUMPDEST JUMPDEST DUP3 DUP3 MUL SWAP1 POP SWAP3 SWAP2 POP POP JUMP JUMPDEST PUSH32 0x706C6561736520696E6469636174652074686520616D6F756E74206F66207061 PUSH1 0x0 DUP3 ADD MSTORE PUSH32 0x796D656E7420657175616C20746F207468652064656274000000000000000000 PUSH1 0x20 DUP3 ADD MSTORE POP JUMP JUMPDEST PUSH1 0x0 PUSH2 0x3A74 PUSH1 0x37 DUP4 PUSH2 0x33F2 JUMP JUMPDEST SWAP2 POP PUSH2 0x3A7F DUP3 PUSH2 0x3A18 JUMP JUMPDEST PUSH1 0x40 DUP3 ADD SWAP1 POP SWAP2 SWAP1 POP JUMP JUMPDEST PUSH1 0x0 PUSH1 0x20 DUP3 ADD SWAP1 POP DUP2 DUP2 SUB PUSH1 0x0 DUP4 ADD MSTORE PUSH2 0x3AA3 DUP2 PUSH2 0x3A67 JUMP JUMPDEST SWAP1 POP SWAP2 SWAP1 POP JUMP JUMPDEST PUSH1 0x0 DUP2 SWAP1 POP SWAP2 SWAP1 POP JUMP JUMPDEST PUSH2 0x3AC5 PUSH2 0x3AC0 DUP3 PUSH2 0x3360 JUMP JUMPDEST PUSH2 0x3AAA JUMP JUMPDEST DUP3 MSTORE POP POP JUMP JUMPDEST PUSH1 0x0 PUSH20 0xFFFFFFFFFFFFFFFFFFFFFFFFFFFFFFFFFFFFFFFF DUP3 AND SWAP1 POP SWAP2 SWAP1 POP JUMP JUMPDEST PUSH1 0x0 PUSH2 0x3AF6 DUP3 PUSH2 0x3ACB JUMP JUMPDEST SWAP1 POP SWAP2 SWAP1 POP JUMP JUMPDEST PUSH1 0x0 DUP2 PUSH1 0x60 SHL SWAP1 POP SWAP2 SWAP1 POP JUMP JUMPDEST PUSH1 0x0 PUSH2 0x3B15 DUP3 PUSH2 0x3AFD JUMP JUMPDEST SWAP1 POP SWAP2 SWAP1 POP JUMP JUMPDEST PUSH1 0x0 PUSH2 0x3B27 DUP3 PUSH2 0x3B0A JUMP JUMPDEST SWAP1 POP SWAP2 SWAP1 POP JUMP JUMPDEST PUSH2 0x3B3F PUSH2 0x3B3A DUP3 PUSH2 0x3AEB JUMP JUMPDEST PUSH2 0x3B1C JUMP JUMPDEST DUP3 MSTORE POP POP JUMP JUMPDEST PUSH1 0x0 PUSH2 0x3B51 DUP3 DUP6 PUSH2 0x3AB4 JUMP JUMPDEST PUSH1 0x20 DUP3 ADD SWAP2 POP PUSH2 0x3B61 DUP3 DUP5 PUSH2 0x3B2E JUMP JUMPDEST PUSH1 0x14 DUP3 ADD SWAP2 POP DUP2 SWAP1 POP SWAP4 SWAP3 POP POP POP JUMP JUMPDEST PUSH32 0x4E487B7100000000000000000000000000000000000000000000000000000000 PUSH1 0x0 MSTORE PUSH1 0x12 PUSH1 0x4 MSTORE PUSH1 0x24 PUSH1 0x0 REVERT JUMPDEST PUSH1 0x0 PUSH2 0x3BAB DUP3 PUSH2 0x3360 JUMP JUMPDEST SWAP2 POP PUSH2 0x3BB6 DUP4 PUSH2 0x3360 JUMP JUMPDEST SWAP3 POP DUP3 PUSH2 0x3BC6 JUMPI PUSH2 0x3BC5 PUSH2 0x3B71 JUMP JUMPDEST JUMPDEST DUP3 DUP3 MOD SWAP1 POP SWAP3 SWAP2 POP POP JUMP INVALID LOG2 PUSH5 0x6970667358 0x22 SLT KECCAK256 0xAB 0xDA 0xAC DUP13 REVERT 0xEA SWAP6 0x5F 0xAC LOG0 PUSH20 0x140CDB0A06BE7B9AE4205655532461764F151B28 0xE4 PUSH5 0x736F6C6343 STOP ADDMOD LT STOP CALLER "
		},
		"gasEstimates": {
			"creation": {
				"codeDepositCost": "3073400",
				"executionCost": "177015",
				"totalCost": "3250415"
			},
			"external": {
				"bank()": "2540",
				"bet1()": "2496",
				"bet2()": "2517",
				"changeMaxBet(uint256)": "infinite",
				"debt1()": "2518",
				"endgame()": "infinite",
				"equalize()": "infinite",
				"maxbet()": "2452",
				"pass()": "infinite",
				"scores1()": "4702",
				"scores2()": "4674",
				"stand()": "infinite",
				"takecard()": "infinite"
			},
			"internal": {
				"clean()": "178006",
				"random()": "infinite",
				"setwinner()": "infinite",
				"withdraw(address payable)": "infinite"
			}
		},
		"methodIdentifiers": {
			"bank()": "76cdb03b",
			"bet1()": "5df3d87e",
			"bet2()": "c41a9892",
			"changeMaxBet(uint256)": "ae47a290",
			"debt1()": "6f97059b",
			"endgame()": "9dd63d6b",
			"equalize()": "b86a770c",
			"maxbet()": "37b4d863",
			"pass()": "a7a1ed72",
			"scores1()": "43000315",
			"scores2()": "ac22c2b4",
			"stand()": "c2897b10",
			"takecard()": "0dd6ed9c"
		}
	},
	"abi": [
		{
			"anonymous": false,
			"inputs": [
				{
					"indexed": true,
					"internalType": "address",
					"name": "_from",
					"type": "address"
				},
				{
					"indexed": false,
					"internalType": "uint256",
					"name": "_amount",
					"type": "uint256"
				},
				{
					"indexed": false,
					"internalType": "uint256",
					"name": "_timestamp",
					"type": "uint256"
				}
			],
			"name": "Paid",
			"type": "event"
		},
		{
			"inputs": [],
			"name": "bank",
			"outputs": [
				{
					"internalType": "uint256",
					"name": "",
					"type": "uint256"
				}
			],
			"stateMutability": "view",
			"type": "function"
		},
		{
			"inputs": [],
			"name": "bet1",
			"outputs": [
				{
					"internalType": "uint256",
					"name": "",
					"type": "uint256"
				}
			],
			"stateMutability": "view",
			"type": "function"
		},
		{
			"inputs": [],
			"name": "bet2",
			"outputs": [
				{
					"internalType": "uint256",
					"name": "",
					"type": "uint256"
				}
			],
			"stateMutability": "view",
			"type": "function"
		},
		{
			"inputs": [
				{
					"internalType": "uint256",
					"name": "maxbetEth",
					"type": "uint256"
				}
			],
			"name": "changeMaxBet",
			"outputs": [],
			"stateMutability": "nonpayable",
			"type": "function"
		},
		{
			"inputs": [],
			"name": "debt1",
			"outputs": [
				{
					"internalType": "uint256",
					"name": "",
					"type": "uint256"
				}
			],
			"stateMutability": "view",
			"type": "function"
		},
		{
			"inputs": [],
			"name": "endgame",
			"outputs": [],
			"stateMutability": "nonpayable",
			"type": "function"
		},
		{
			"inputs": [],
			"name": "equalize",
			"outputs": [],
			"stateMutability": "payable",
			"type": "function"
		},
		{
			"inputs": [],
			"name": "maxbet",
			"outputs": [
				{
					"internalType": "uint256",
					"name": "",
					"type": "uint256"
				}
			],
			"stateMutability": "view",
			"type": "function"
		},
		{
			"inputs": [],
			"name": "pass",
			"outputs": [],
			"stateMutability": "payable",
			"type": "function"
		},
		{
			"inputs": [],
			"name": "scores1",
			"outputs": [
				{
					"internalType": "uint256",
					"name": "",
					"type": "uint256"
				}
			],
			"stateMutability": "view",
			"type": "function"
		},
		{
			"inputs": [],
			"name": "scores2",
			"outputs": [
				{
					"internalType": "uint256",
					"name": "",
					"type": "uint256"
				}
			],
			"stateMutability": "view",
			"type": "function"
		},
		{
			"inputs": [],
			"name": "stand",
			"outputs": [],
			"stateMutability": "payable",
			"type": "function"
		},
		{
			"inputs": [],
			"name": "takecard",
			"outputs": [],
			"stateMutability": "payable",
			"type": "function"
		}
	]
}